{
	"backend/web3/Purpose.sol": {
		"Purpose": {
			"abi": [
				{
					"anonymous": false,
					"inputs": [
						{
							"components": [
								{
									"internalType": "string",
									"name": "title",
									"type": "string"
								},
								{
									"internalType": "uint64",
									"name": "payout",
									"type": "uint64"
								},
								{
									"internalType": "bool",
									"name": "completed",
									"type": "bool"
								}
							],
							"indexed": false,
							"internalType": "struct Mission",
							"name": "mission",
							"type": "tuple"
						}
					],
					"name": "AddedMission",
					"type": "event"
				},
				{
					"anonymous": false,
					"inputs": [
						{
							"components": [
								{
									"internalType": "string",
									"name": "title",
									"type": "string"
								},
								{
									"internalType": "uint64",
									"name": "payout",
									"type": "uint64"
								},
								{
									"internalType": "bool",
									"name": "completed",
									"type": "bool"
								}
							],
							"indexed": false,
							"internalType": "struct Mission",
							"name": "mission",
							"type": "tuple"
						}
					],
					"name": "RemovedMission",
					"type": "event"
				},
				{
					"inputs": [
						{
							"internalType": "string",
							"name": "name",
							"type": "string"
						}
					],
					"name": "addMission",
					"outputs": [],
					"stateMutability": "nonpayable",
					"type": "function"
				},
				{
					"inputs": [],
					"name": "allMissions",
					"outputs": [
						{
							"components": [
								{
									"internalType": "string",
									"name": "title",
									"type": "string"
								},
								{
									"internalType": "uint64",
									"name": "payout",
									"type": "uint64"
								},
								{
									"internalType": "bool",
									"name": "completed",
									"type": "bool"
								}
							],
							"internalType": "struct Mission[]",
							"name": "",
							"type": "tuple[]"
						}
					],
					"stateMutability": "view",
					"type": "function"
				},
				{
					"inputs": [
						{
							"internalType": "uint256",
							"name": "id",
							"type": "uint256"
						}
					],
					"name": "missionByID",
					"outputs": [
						{
							"components": [
								{
									"internalType": "string",
									"name": "title",
									"type": "string"
								},
								{
									"internalType": "uint64",
									"name": "payout",
									"type": "uint64"
								},
								{
									"internalType": "bool",
									"name": "completed",
									"type": "bool"
								}
							],
							"internalType": "struct Mission",
							"name": "",
							"type": "tuple"
						}
					],
					"stateMutability": "view",
					"type": "function"
				},
				{
					"inputs": [
						{
							"internalType": "string",
							"name": "name",
							"type": "string"
						}
					],
					"name": "missionByName",
					"outputs": [
						{
							"components": [
								{
									"internalType": "string",
									"name": "title",
									"type": "string"
								},
								{
									"internalType": "uint64",
									"name": "payout",
									"type": "uint64"
								},
								{
									"internalType": "bool",
									"name": "completed",
									"type": "bool"
								}
							],
							"internalType": "struct Mission",
							"name": "",
							"type": "tuple"
						}
					],
					"stateMutability": "view",
					"type": "function"
				},
				{
					"inputs": [
						{
							"internalType": "string",
							"name": "name",
							"type": "string"
						}
					],
					"name": "removeMission",
					"outputs": [],
					"stateMutability": "nonpayable",
					"type": "function"
				}
			],
			"devdoc": {
				"kind": "dev",
				"methods": {},
				"version": 1
			},
			"evm": {
				"assembly": "    /* \"backend/web3/Purpose.sol\":70:1056  contract Purpose {... */\n  mstore(0x40, 0x80)\n  callvalue\n  dup1\n  iszero\n  tag_1\n  jumpi\n  0x00\n  dup1\n  revert\ntag_1:\n  pop\n  dataSize(sub_0)\n  dup1\n  dataOffset(sub_0)\n  0x00\n  codecopy\n  0x00\n  return\nstop\n\nsub_0: assembly {\n        /* \"backend/web3/Purpose.sol\":70:1056  contract Purpose {... */\n      mstore(0x40, 0x80)\n      callvalue\n      dup1\n      iszero\n      tag_1\n      jumpi\n      0x00\n      dup1\n      revert\n    tag_1:\n      pop\n      jumpi(tag_2, lt(calldatasize, 0x04))\n      shr(0xe0, calldataload(0x00))\n      dup1\n      0x2da76955\n      eq\n      tag_3\n      jumpi\n      dup1\n      0x72254ef8\n      eq\n      tag_4\n      jumpi\n      dup1\n      0x7509d95d\n      eq\n      tag_5\n      jumpi\n      dup1\n      0xd4b127ff\n      eq\n      tag_6\n      jumpi\n      dup1\n      0xf17fcb2f\n      eq\n      tag_7\n      jumpi\n    tag_2:\n      0x00\n      dup1\n      revert\n        /* \"backend/web3/Purpose.sol\":694:788  function allMissions() public view returns (Mission[] memory) {... */\n    tag_3:\n      tag_8\n      tag_9\n      jump\t// in\n    tag_8:\n      mload(0x40)\n      tag_10\n      swap2\n      swap1\n      tag_11\n      jump\t// in\n    tag_10:\n      mload(0x40)\n      dup1\n      swap2\n      sub\n      swap1\n      return\n        /* \"backend/web3/Purpose.sol\":312:478  function addMission(string memory name) public {... */\n    tag_4:\n      tag_12\n      0x04\n      dup1\n      calldatasize\n      sub\n      dup2\n      add\n      swap1\n      tag_13\n      swap2\n      swap1\n      tag_14\n      jump\t// in\n    tag_13:\n      tag_15\n      jump\t// in\n    tag_12:\n      stop\n        /* \"backend/web3/Purpose.sol\":908:1054  function missionByName(string memory name)... */\n    tag_5:\n      tag_16\n      0x04\n      dup1\n      calldatasize\n      sub\n      dup2\n      add\n      swap1\n      tag_17\n      swap2\n      swap1\n      tag_14\n      jump\t// in\n    tag_17:\n      tag_18\n      jump\t// in\n    tag_16:\n      mload(0x40)\n      tag_19\n      swap2\n      swap1\n      tag_20\n      jump\t// in\n    tag_19:\n      mload(0x40)\n      dup1\n      swap2\n      sub\n      swap1\n      return\n        /* \"backend/web3/Purpose.sol\":484:658  function removeMission(string memory name) public {... */\n    tag_6:\n      tag_21\n      0x04\n      dup1\n      calldatasize\n      sub\n      dup2\n      add\n      swap1\n      tag_22\n      swap2\n      swap1\n      tag_14\n      jump\t// in\n    tag_22:\n      tag_23\n      jump\t// in\n    tag_21:\n      stop\n        /* \"backend/web3/Purpose.sol\":794:902  function missionByID(uint256 id) public view returns (Mission memory) {... */\n    tag_7:\n      tag_24\n      0x04\n      dup1\n      calldatasize\n      sub\n      dup2\n      add\n      swap1\n      tag_25\n      swap2\n      swap1\n      tag_26\n      jump\t// in\n    tag_25:\n      tag_27\n      jump\t// in\n    tag_24:\n      mload(0x40)\n      tag_28\n      swap2\n      swap1\n      tag_20\n      jump\t// in\n    tag_28:\n      mload(0x40)\n      dup1\n      swap2\n      sub\n      swap1\n      return\n        /* \"backend/web3/Purpose.sol\":694:788  function allMissions() public view returns (Mission[] memory) {... */\n    tag_9:\n        /* \"backend/web3/Purpose.sol\":738:754  Mission[] memory */\n      0x60\n        /* \"backend/web3/Purpose.sol\":773:781  db.all() */\n      tag_30\n        /* \"backend/web3/Purpose.sol\":773:775  db */\n      0x00\n        /* \"backend/web3/Purpose.sol\":773:779  db.all */\n      tag_31\n        /* \"backend/web3/Purpose.sol\":773:781  db.all() */\n      jump\t// in\n    tag_30:\n        /* \"backend/web3/Purpose.sol\":766:781  return db.all() */\n      swap1\n      pop\n        /* \"backend/web3/Purpose.sol\":694:788  function allMissions() public view returns (Mission[] memory) {... */\n      swap1\n      jump\t// out\n        /* \"backend/web3/Purpose.sol\":312:478  function addMission(string memory name) public {... */\n    tag_15:\n        /* \"backend/web3/Purpose.sol\":370:392  Mission memory mission */\n      0x00\n        /* \"backend/web3/Purpose.sol\":394:406  bool success */\n      dup1\n        /* \"backend/web3/Purpose.sol\":410:422  db.add(name) */\n      tag_33\n        /* \"backend/web3/Purpose.sol\":417:421  name */\n      dup4\n        /* \"backend/web3/Purpose.sol\":410:412  db */\n      0x00\n        /* \"backend/web3/Purpose.sol\":410:416  db.add */\n      tag_34\n      swap1\n        /* \"backend/web3/Purpose.sol\":410:422  db.add(name) */\n      swap2\n      swap1\n      0xffffffff\n      and\n      jump\t// in\n    tag_33:\n        /* \"backend/web3/Purpose.sol\":369:422  (Mission memory mission, bool success) = db.add(name) */\n      swap2\n      pop\n      swap2\n      pop\n        /* \"backend/web3/Purpose.sol\":436:443  success */\n      dup1\n        /* \"backend/web3/Purpose.sol\":432:471  if (success) emit AddedMission(mission) */\n      iszero\n      tag_35\n      jumpi\n        /* \"backend/web3/Purpose.sol\":450:471  AddedMission(mission) */\n      0xdba8f119d1a15584e96e4b7347aaca727202e849378f6f178a37a24cc6244ad5\n        /* \"backend/web3/Purpose.sol\":463:470  mission */\n      dup3\n        /* \"backend/web3/Purpose.sol\":450:471  AddedMission(mission) */\n      mload(0x40)\n      tag_36\n      swap2\n      swap1\n      tag_20\n      jump\t// in\n    tag_36:\n      mload(0x40)\n      dup1\n      swap2\n      sub\n      swap1\n      log1\n        /* \"backend/web3/Purpose.sol\":432:471  if (success) emit AddedMission(mission) */\n    tag_35:\n        /* \"backend/web3/Purpose.sol\":359:478  {... */\n      pop\n      pop\n        /* \"backend/web3/Purpose.sol\":312:478  function addMission(string memory name) public {... */\n      pop\n      jump\t// out\n        /* \"backend/web3/Purpose.sol\":908:1054  function missionByName(string memory name)... */\n    tag_18:\n        /* \"backend/web3/Purpose.sol\":996:1010  Mission memory */\n      tag_37\n      tag_38\n      jump\t// in\n    tag_37:\n        /* \"backend/web3/Purpose.sol\":1033:1047  db.atKey(name) */\n      tag_40\n        /* \"backend/web3/Purpose.sol\":1042:1046  name */\n      dup3\n        /* \"backend/web3/Purpose.sol\":1033:1035  db */\n      0x00\n        /* \"backend/web3/Purpose.sol\":1033:1041  db.atKey */\n      tag_41\n      swap1\n        /* \"backend/web3/Purpose.sol\":1033:1047  db.atKey(name) */\n      swap2\n      swap1\n      0xffffffff\n      and\n      jump\t// in\n    tag_40:\n        /* \"backend/web3/Purpose.sol\":1026:1047  return db.atKey(name) */\n      swap1\n      pop\n        /* \"backend/web3/Purpose.sol\":908:1054  function missionByName(string memory name)... */\n      swap2\n      swap1\n      pop\n      jump\t// out\n        /* \"backend/web3/Purpose.sol\":484:658  function removeMission(string memory name) public {... */\n    tag_23:\n        /* \"backend/web3/Purpose.sol\":545:567  Mission memory mission */\n      0x00\n        /* \"backend/web3/Purpose.sol\":569:581  bool success */\n      dup1\n        /* \"backend/web3/Purpose.sol\":585:600  db.remove(name) */\n      tag_43\n        /* \"backend/web3/Purpose.sol\":595:599  name */\n      dup4\n        /* \"backend/web3/Purpose.sol\":585:587  db */\n      0x00\n        /* \"backend/web3/Purpose.sol\":585:594  db.remove */\n      tag_44\n      swap1\n        /* \"backend/web3/Purpose.sol\":585:600  db.remove(name) */\n      swap2\n      swap1\n      0xffffffff\n      and\n      jump\t// in\n    tag_43:\n        /* \"backend/web3/Purpose.sol\":544:600  (Mission memory mission, bool success) = db.remove(name) */\n      swap2\n      pop\n      swap2\n      pop\n        /* \"backend/web3/Purpose.sol\":614:621  success */\n      dup1\n        /* \"backend/web3/Purpose.sol\":610:651  if (success) emit RemovedMission(mission) */\n      iszero\n      tag_45\n      jumpi\n        /* \"backend/web3/Purpose.sol\":628:651  RemovedMission(mission) */\n      0x27e8d524e71df3d22630ccf6e2b48aa67b9dbcc29e37e3e23175e8045b7d141c\n        /* \"backend/web3/Purpose.sol\":643:650  mission */\n      dup3\n        /* \"backend/web3/Purpose.sol\":628:651  RemovedMission(mission) */\n      mload(0x40)\n      tag_46\n      swap2\n      swap1\n      tag_20\n      jump\t// in\n    tag_46:\n      mload(0x40)\n      dup1\n      swap2\n      sub\n      swap1\n      log1\n        /* \"backend/web3/Purpose.sol\":610:651  if (success) emit RemovedMission(mission) */\n    tag_45:\n        /* \"backend/web3/Purpose.sol\":534:658  {... */\n      pop\n      pop\n        /* \"backend/web3/Purpose.sol\":484:658  function removeMission(string memory name) public {... */\n      pop\n      jump\t// out\n        /* \"backend/web3/Purpose.sol\":794:902  function missionByID(uint256 id) public view returns (Mission memory) {... */\n    tag_27:\n        /* \"backend/web3/Purpose.sol\":848:862  Mission memory */\n      tag_47\n      tag_38\n      jump\t// in\n    tag_47:\n        /* \"backend/web3/Purpose.sol\":881:895  db.atIndex(id) */\n      tag_49\n        /* \"backend/web3/Purpose.sol\":892:894  id */\n      dup3\n        /* \"backend/web3/Purpose.sol\":881:883  db */\n      0x00\n        /* \"backend/web3/Purpose.sol\":881:891  db.atIndex */\n      tag_50\n      swap1\n        /* \"backend/web3/Purpose.sol\":881:895  db.atIndex(id) */\n      swap2\n      swap1\n      0xffffffff\n      and\n      jump\t// in\n    tag_49:\n        /* \"backend/web3/Purpose.sol\":874:895  return db.atIndex(id) */\n      swap1\n      pop\n        /* \"backend/web3/Purpose.sol\":794:902  function missionByID(uint256 id) public view returns (Mission memory) {... */\n      swap2\n      swap1\n      pop\n      jump\t// out\n        /* \"backend/web3/Purpose.sol\":2728:3207  function all(MissionDatabase storage self)... */\n    tag_31:\n        /* \"backend/web3/Purpose.sol\":2818:2834  Mission[] memory */\n      0x60\n        /* \"backend/web3/Purpose.sol\":2850:2863  uint256 index */\n      0x00\n        /* \"backend/web3/Purpose.sol\":2877:2902  Mission[] memory missions */\n      dup1\n        /* \"backend/web3/Purpose.sol\":2919:2923  self */\n      dup4\n        /* \"backend/web3/Purpose.sol\":2919:2928  self.size */\n      0x02\n      add\n      sload\n        /* \"backend/web3/Purpose.sol\":2905:2929  new Mission[](self.size) */\n      0xffffffffffffffff\n      dup2\n      gt\n      iszero\n      tag_52\n      jumpi\n      tag_53\n      tag_54\n      jump\t// in\n    tag_53:\n    tag_52:\n      mload(0x40)\n      swap1\n      dup1\n      dup3\n      mstore\n      dup1\n      0x20\n      mul\n      0x20\n      add\n      dup3\n      add\n      0x40\n      mstore\n      dup1\n      iszero\n      tag_55\n      jumpi\n      dup2\n      0x20\n      add\n    tag_56:\n      tag_57\n      tag_38\n      jump\t// in\n    tag_57:\n      dup2\n      mstore\n      0x20\n      add\n      swap1\n      0x01\n      swap1\n      sub\n      swap1\n      dup2\n      tag_56\n      jumpi\n      swap1\n      pop\n    tag_55:\n      pop\n        /* \"backend/web3/Purpose.sol\":2877:2929  Mission[] memory missions = new Mission[](self.size) */\n      swap1\n      pop\n        /* \"backend/web3/Purpose.sol\":2944:2953  uint256 i */\n      0x00\n        /* \"backend/web3/Purpose.sol\":2939:3176  for (uint256 i = 0; i < self.capacity; i++) {... */\n    tag_58:\n        /* \"backend/web3/Purpose.sol\":2963:2967  self */\n      dup5\n        /* \"backend/web3/Purpose.sol\":2963:2976  self.capacity */\n      0x03\n      add\n      sload\n        /* \"backend/web3/Purpose.sol\":2959:2960  i */\n      dup2\n        /* \"backend/web3/Purpose.sol\":2959:2976  i < self.capacity */\n      lt\n        /* \"backend/web3/Purpose.sol\":2939:3176  for (uint256 i = 0; i < self.capacity; i++) {... */\n      iszero\n      tag_59\n      jumpi\n        /* \"backend/web3/Purpose.sol\":2997:3018  MissionKey memory key */\n      0x00\n        /* \"backend/web3/Purpose.sol\":3021:3025  self */\n      dup6\n        /* \"backend/web3/Purpose.sol\":3021:3030  self.keys */\n      0x00\n      add\n        /* \"backend/web3/Purpose.sol\":3031:3032  i */\n      dup3\n        /* \"backend/web3/Purpose.sol\":3021:3033  self.keys[i] */\n      dup2\n      sload\n      dup2\n      lt\n      tag_61\n      jumpi\n      tag_62\n      tag_63\n      jump\t// in\n    tag_62:\n    tag_61:\n      swap1\n      0x00\n      mstore\n      keccak256(0x00, 0x20)\n      swap1\n      0x02\n      mul\n      add\n        /* \"backend/web3/Purpose.sol\":2997:3033  MissionKey memory key = self.keys[i] */\n      mload(0x40)\n      dup1\n      0x40\n      add\n      0x40\n      mstore\n      swap1\n      dup2\n      0x00\n      dup3\n      add\n      0x00\n      swap1\n      sload\n      swap1\n      0x0100\n      exp\n      swap1\n      div\n      0xff\n      and\n      iszero\n      iszero\n      iszero\n      iszero\n      dup2\n      mstore\n      0x20\n      add\n      0x01\n      dup3\n      add\n      dup1\n      sload\n      tag_65\n      swap1\n      tag_66\n      jump\t// in\n    tag_65:\n      dup1\n      0x1f\n      add\n      0x20\n      dup1\n      swap2\n      div\n      mul\n      0x20\n      add\n      mload(0x40)\n      swap1\n      dup2\n      add\n      0x40\n      mstore\n      dup1\n      swap3\n      swap2\n      swap1\n      dup2\n      dup2\n      mstore\n      0x20\n      add\n      dup3\n      dup1\n      sload\n      tag_67\n      swap1\n      tag_66\n      jump\t// in\n    tag_67:\n      dup1\n      iszero\n      tag_68\n      jumpi\n      dup1\n      0x1f\n      lt\n      tag_69\n      jumpi\n      0x0100\n      dup1\n      dup4\n      sload\n      div\n      mul\n      dup4\n      mstore\n      swap2\n      0x20\n      add\n      swap2\n      jump(tag_68)\n    tag_69:\n      dup3\n      add\n      swap2\n      swap1\n      0x00\n      mstore\n      keccak256(0x00, 0x20)\n      swap1\n    tag_70:\n      dup2\n      sload\n      dup2\n      mstore\n      swap1\n      0x01\n      add\n      swap1\n      0x20\n      add\n      dup1\n      dup4\n      gt\n      tag_70\n      jumpi\n      dup3\n      swap1\n      sub\n      0x1f\n      and\n      dup3\n      add\n      swap2\n    tag_68:\n      pop\n      pop\n      pop\n      pop\n      pop\n      dup2\n      mstore\n      pop\n      pop\n      swap1\n      pop\n        /* \"backend/web3/Purpose.sol\":3052:3055  key */\n      dup1\n        /* \"backend/web3/Purpose.sol\":3052:3063  key.deleted */\n      0x00\n      add\n      mload\n        /* \"backend/web3/Purpose.sol\":3047:3166  if (!key.deleted) {... */\n      tag_71\n      jumpi\n        /* \"backend/web3/Purpose.sol\":3101:3105  self */\n      dup6\n        /* \"backend/web3/Purpose.sol\":3101:3109  self.map */\n      0x01\n      add\n        /* \"backend/web3/Purpose.sol\":3110:3113  key */\n      dup2\n        /* \"backend/web3/Purpose.sol\":3110:3119  key.value */\n      0x20\n      add\n      mload\n        /* \"backend/web3/Purpose.sol\":3101:3120  self.map[key.value] */\n      mload(0x40)\n      tag_72\n      swap2\n      swap1\n      tag_73\n      jump\t// in\n    tag_72:\n      swap1\n      dup2\n      mstore\n      0x20\n      add\n      mload(0x40)\n      dup1\n      swap2\n      sub\n      swap1\n      keccak256\n        /* \"backend/web3/Purpose.sol\":3101:3126  self.map[key.value].value */\n      0x01\n      add\n        /* \"backend/web3/Purpose.sol\":3083:3126  missions[index] = self.map[key.value].value */\n      mload(0x40)\n      dup1\n      0x60\n      add\n      0x40\n      mstore\n      swap1\n      dup2\n      0x00\n      dup3\n      add\n      dup1\n      sload\n      tag_74\n      swap1\n      tag_66\n      jump\t// in\n    tag_74:\n      dup1\n      0x1f\n      add\n      0x20\n      dup1\n      swap2\n      div\n      mul\n      0x20\n      add\n      mload(0x40)\n      swap1\n      dup2\n      add\n      0x40\n      mstore\n      dup1\n      swap3\n      swap2\n      swap1\n      dup2\n      dup2\n      mstore\n      0x20\n      add\n      dup3\n      dup1\n      sload\n      tag_75\n      swap1\n      tag_66\n      jump\t// in\n    tag_75:\n      dup1\n      iszero\n      tag_76\n      jumpi\n      dup1\n      0x1f\n      lt\n      tag_77\n      jumpi\n      0x0100\n      dup1\n      dup4\n      sload\n      div\n      mul\n      dup4\n      mstore\n      swap2\n      0x20\n      add\n      swap2\n      jump(tag_76)\n    tag_77:\n      dup3\n      add\n      swap2\n      swap1\n      0x00\n      mstore\n      keccak256(0x00, 0x20)\n      swap1\n    tag_78:\n      dup2\n      sload\n      dup2\n      mstore\n      swap1\n      0x01\n      add\n      swap1\n      0x20\n      add\n      dup1\n      dup4\n      gt\n      tag_78\n      jumpi\n      dup3\n      swap1\n      sub\n      0x1f\n      and\n      dup3\n      add\n      swap2\n    tag_76:\n      pop\n      pop\n      pop\n      pop\n      pop\n      dup2\n      mstore\n      0x20\n      add\n      0x01\n      dup3\n      add\n      0x00\n      swap1\n      sload\n      swap1\n      0x0100\n      exp\n      swap1\n      div\n      0xffffffffffffffff\n      and\n      0xffffffffffffffff\n      and\n      0xffffffffffffffff\n      and\n      dup2\n      mstore\n      0x20\n      add\n      0x01\n      dup3\n      add\n      0x08\n      swap1\n      sload\n      swap1\n      0x0100\n      exp\n      swap1\n      div\n      0xff\n      and\n      iszero\n      iszero\n      iszero\n      iszero\n      dup2\n      mstore\n      pop\n      pop\n        /* \"backend/web3/Purpose.sol\":3083:3091  missions */\n      dup4\n        /* \"backend/web3/Purpose.sol\":3092:3097  index */\n      dup6\n        /* \"backend/web3/Purpose.sol\":3083:3098  missions[index] */\n      dup2\n      mload\n      dup2\n      lt\n      tag_79\n      jumpi\n      tag_80\n      tag_63\n      jump\t// in\n    tag_80:\n    tag_79:\n      0x20\n      mul\n      0x20\n      add\n      add\n        /* \"backend/web3/Purpose.sol\":3083:3126  missions[index] = self.map[key.value].value */\n      dup2\n      swap1\n      mstore\n      pop\n        /* \"backend/web3/Purpose.sol\":3144:3151  index++ */\n      dup4\n      dup1\n      tag_81\n      swap1\n      tag_82\n      jump\t// in\n    tag_81:\n      swap5\n      pop\n      pop\n        /* \"backend/web3/Purpose.sol\":3047:3166  if (!key.deleted) {... */\n    tag_71:\n        /* \"backend/web3/Purpose.sol\":2983:3176  {... */\n      pop\n        /* \"backend/web3/Purpose.sol\":2978:2981  i++ */\n      dup1\n      dup1\n      tag_83\n      swap1\n      tag_82\n      jump\t// in\n    tag_83:\n      swap2\n      pop\n      pop\n        /* \"backend/web3/Purpose.sol\":2939:3176  for (uint256 i = 0; i < self.capacity; i++) {... */\n      jump(tag_58)\n    tag_59:\n      pop\n        /* \"backend/web3/Purpose.sol\":3192:3200  missions */\n      dup1\n        /* \"backend/web3/Purpose.sol\":3185:3200  return missions */\n      swap3\n      pop\n      pop\n      pop\n        /* \"backend/web3/Purpose.sol\":2728:3207  function all(MissionDatabase storage self)... */\n      swap2\n      swap1\n      pop\n      jump\t// out\n        /* \"backend/web3/Purpose.sol\":1670:2259  function add(MissionDatabase storage self, string memory key)... */\n    tag_34:\n        /* \"backend/web3/Purpose.sol\":1766:1780  Mission memory */\n      tag_84\n      tag_38\n      jump\t// in\n    tag_84:\n        /* \"backend/web3/Purpose.sol\":1782:1786  bool */\n      0x00\n        /* \"backend/web3/Purpose.sol\":1802:1815  uint256 index */\n      dup1\n        /* \"backend/web3/Purpose.sol\":1818:1822  self */\n      dup5\n        /* \"backend/web3/Purpose.sol\":1818:1826  self.map */\n      0x01\n      add\n        /* \"backend/web3/Purpose.sol\":1827:1830  key */\n      dup5\n        /* \"backend/web3/Purpose.sol\":1818:1831  self.map[key] */\n      mload(0x40)\n      tag_86\n      swap2\n      swap1\n      tag_73\n      jump\t// in\n    tag_86:\n      swap1\n      dup2\n      mstore\n      0x20\n      add\n      mload(0x40)\n      dup1\n      swap2\n      sub\n      swap1\n      keccak256\n        /* \"backend/web3/Purpose.sol\":1818:1837  self.map[key].index */\n      0x00\n      add\n      sload\n        /* \"backend/web3/Purpose.sol\":1802:1837  uint256 index = self.map[key].index */\n      swap1\n      pop\n        /* \"backend/web3/Purpose.sol\":1860:1861  0 */\n      0x00\n        /* \"backend/web3/Purpose.sol\":1851:1856  index */\n      dup2\n        /* \"backend/web3/Purpose.sol\":1851:1861  index != 0 */\n      eq\n        /* \"backend/web3/Purpose.sol\":1847:1918  if (index != 0) {... */\n      tag_87\n      jumpi\n        /* \"backend/web3/Purpose.sol\":1885:1899  mission(\"\", 0) */\n      tag_88\n      mload(0x40)\n      dup1\n      0x20\n      add\n      0x40\n      mstore\n      dup1\n      0x00\n      dup2\n      mstore\n      pop\n        /* \"backend/web3/Purpose.sol\":1897:1898  0 */\n      0x00\n        /* \"backend/web3/Purpose.sol\":1885:1892  mission */\n      tag_89\n        /* \"backend/web3/Purpose.sol\":1885:1899  mission(\"\", 0) */\n      jump\t// in\n    tag_88:\n        /* \"backend/web3/Purpose.sol\":1901:1906  false */\n      0x00\n        /* \"backend/web3/Purpose.sol\":1877:1907  return (mission(\"\", 0), false) */\n      swap3\n      pop\n      swap3\n      pop\n      pop\n      jump(tag_85)\n        /* \"backend/web3/Purpose.sol\":1847:1918  if (index != 0) {... */\n    tag_87:\n        /* \"backend/web3/Purpose.sol\":1928:1955  Mission memory addedMission */\n      0x00\n        /* \"backend/web3/Purpose.sol\":1958:1973  mission(key, 0) */\n      tag_90\n        /* \"backend/web3/Purpose.sol\":1966:1969  key */\n      dup6\n        /* \"backend/web3/Purpose.sol\":1971:1972  0 */\n      0x00\n        /* \"backend/web3/Purpose.sol\":1958:1965  mission */\n      tag_89\n        /* \"backend/web3/Purpose.sol\":1958:1973  mission(key, 0) */\n      jump\t// in\n    tag_90:\n        /* \"backend/web3/Purpose.sol\":1928:1973  Mission memory addedMission = mission(key, 0) */\n      swap1\n      pop\n        /* \"backend/web3/Purpose.sol\":1984:1988  self */\n      dup6\n        /* \"backend/web3/Purpose.sol\":1984:1993  self.keys */\n      0x00\n      add\n        /* \"backend/web3/Purpose.sol\":1984:2000  self.keys.push() */\n      0x01\n      dup2\n      0x01\n      dup2\n      sload\n      add\n      dup1\n      dup3\n      sstore\n      dup1\n      swap2\n      pop\n      pop\n      sub\n      swap1\n      0x00\n      mstore\n      keccak256(0x00, 0x20)\n      swap1\n      pop\n      pop\n        /* \"backend/web3/Purpose.sol\":2043:2046  key */\n      dup5\n        /* \"backend/web3/Purpose.sol\":2010:2014  self */\n      dup7\n        /* \"backend/web3/Purpose.sol\":2010:2019  self.keys */\n      0x00\n      add\n        /* \"backend/web3/Purpose.sol\":2020:2024  self */\n      dup8\n        /* \"backend/web3/Purpose.sol\":2020:2033  self.capacity */\n      0x03\n      add\n      sload\n        /* \"backend/web3/Purpose.sol\":2010:2034  self.keys[self.capacity] */\n      dup2\n      sload\n      dup2\n      lt\n      tag_92\n      jumpi\n      tag_93\n      tag_63\n      jump\t// in\n    tag_93:\n    tag_92:\n      swap1\n      0x00\n      mstore\n      keccak256(0x00, 0x20)\n      swap1\n      0x02\n      mul\n      add\n        /* \"backend/web3/Purpose.sol\":2010:2040  self.keys[self.capacity].value */\n      0x01\n      add\n        /* \"backend/web3/Purpose.sol\":2010:2046  self.keys[self.capacity].value = key */\n      swap1\n      dup1\n      mload\n      swap1\n      0x20\n      add\n      swap1\n      tag_95\n      swap3\n      swap2\n      swap1\n      tag_96\n      jump\t// in\n    tag_95:\n      pop\n        /* \"backend/web3/Purpose.sol\":2072:2167  MissionValue({... */\n      mload(0x40)\n      dup1\n      0x40\n      add\n      0x40\n      mstore\n      dup1\n        /* \"backend/web3/Purpose.sol\":2122:2123  1 */\n      0x01\n        /* \"backend/web3/Purpose.sol\":2106:2110  self */\n      dup9\n        /* \"backend/web3/Purpose.sol\":2106:2119  self.capacity */\n      0x03\n      add\n      sload\n        /* \"backend/web3/Purpose.sol\":2106:2123  self.capacity + 1 */\n      tag_97\n      swap2\n      swap1\n      tag_98\n      jump\t// in\n    tag_97:\n        /* \"backend/web3/Purpose.sol\":2072:2167  MissionValue({... */\n      dup2\n      mstore\n      0x20\n      add\n        /* \"backend/web3/Purpose.sol\":2144:2156  addedMission */\n      dup3\n        /* \"backend/web3/Purpose.sol\":2072:2167  MissionValue({... */\n      dup2\n      mstore\n      pop\n        /* \"backend/web3/Purpose.sol\":2056:2060  self */\n      dup7\n        /* \"backend/web3/Purpose.sol\":2056:2064  self.map */\n      0x01\n      add\n        /* \"backend/web3/Purpose.sol\":2065:2068  key */\n      dup7\n        /* \"backend/web3/Purpose.sol\":2056:2069  self.map[key] */\n      mload(0x40)\n      tag_99\n      swap2\n      swap1\n      tag_73\n      jump\t// in\n    tag_99:\n      swap1\n      dup2\n      mstore\n      0x20\n      add\n      mload(0x40)\n      dup1\n      swap2\n      sub\n      swap1\n      keccak256\n        /* \"backend/web3/Purpose.sol\":2056:2167  self.map[key] = MissionValue({... */\n      0x00\n      dup3\n      add\n      mload\n      dup2\n      0x00\n      add\n      sstore\n      0x20\n      dup3\n      add\n      mload\n      dup2\n      0x01\n      add\n      0x00\n      dup3\n      add\n      mload\n      dup2\n      0x00\n      add\n      swap1\n      dup1\n      mload\n      swap1\n      0x20\n      add\n      swap1\n      tag_100\n      swap3\n      swap2\n      swap1\n      tag_96\n      jump\t// in\n    tag_100:\n      pop\n      0x20\n      dup3\n      add\n      mload\n      dup2\n      0x01\n      add\n      exp(0x0100, 0x00)\n      dup2\n      sload\n      dup2\n      0xffffffffffffffff\n      mul\n      not\n      and\n      swap1\n      dup4\n      0xffffffffffffffff\n      and\n      mul\n      or\n      swap1\n      sstore\n      pop\n      0x40\n      dup3\n      add\n      mload\n      dup2\n      0x01\n      add\n      exp(0x0100, 0x08)\n      dup2\n      sload\n      dup2\n      0xff\n      mul\n      not\n      and\n      swap1\n      dup4\n      iszero\n      iszero\n      mul\n      or\n      swap1\n      sstore\n      pop\n      pop\n      pop\n      swap1\n      pop\n      pop\n        /* \"backend/web3/Purpose.sol\":2178:2182  self */\n      dup6\n        /* \"backend/web3/Purpose.sol\":2178:2187  self.size */\n      0x02\n      add\n      0x00\n        /* \"backend/web3/Purpose.sol\":2178:2189  self.size++ */\n      dup2\n      sload\n      dup1\n      swap3\n      swap2\n      swap1\n      tag_101\n      swap1\n      tag_82\n      jump\t// in\n    tag_101:\n      swap2\n      swap1\n      pop\n      sstore\n      pop\n        /* \"backend/web3/Purpose.sol\":2199:2203  self */\n      dup6\n        /* \"backend/web3/Purpose.sol\":2199:2212  self.capacity */\n      0x03\n      add\n      0x00\n        /* \"backend/web3/Purpose.sol\":2199:2214  self.capacity++ */\n      dup2\n      sload\n      dup1\n      swap3\n      swap2\n      swap1\n      tag_102\n      swap1\n      tag_82\n      jump\t// in\n    tag_102:\n      swap2\n      swap1\n      pop\n      sstore\n      pop\n        /* \"backend/web3/Purpose.sol\":2233:2245  addedMission */\n      dup1\n        /* \"backend/web3/Purpose.sol\":2247:2251  true */\n      0x01\n        /* \"backend/web3/Purpose.sol\":2225:2252  return (addedMission, true) */\n      swap4\n      pop\n      swap4\n      pop\n      pop\n      pop\n        /* \"backend/web3/Purpose.sol\":1670:2259  function add(MissionDatabase storage self, string memory key)... */\n    tag_85:\n      swap3\n      pop\n      swap3\n      swap1\n      pop\n      jump\t// out\n        /* \"backend/web3/Purpose.sol\":3489:3712  function atKey(MissionDatabase storage self, string memory key)... */\n    tag_41:\n        /* \"backend/web3/Purpose.sol\":3600:3614  Mission memory */\n      tag_103\n      tag_38\n      jump\t// in\n    tag_103:\n        /* \"backend/web3/Purpose.sol\":3686:3690  self */\n      dup3\n        /* \"backend/web3/Purpose.sol\":3686:3694  self.map */\n      0x01\n      add\n        /* \"backend/web3/Purpose.sol\":3695:3698  key */\n      dup3\n        /* \"backend/web3/Purpose.sol\":3686:3699  self.map[key] */\n      mload(0x40)\n      tag_105\n      swap2\n      swap1\n      tag_73\n      jump\t// in\n    tag_105:\n      swap1\n      dup2\n      mstore\n      0x20\n      add\n      mload(0x40)\n      dup1\n      swap2\n      sub\n      swap1\n      keccak256\n        /* \"backend/web3/Purpose.sol\":3686:3705  self.map[key].value */\n      0x01\n      add\n        /* \"backend/web3/Purpose.sol\":3679:3705  return self.map[key].value */\n      mload(0x40)\n      dup1\n      0x60\n      add\n      0x40\n      mstore\n      swap1\n      dup2\n      0x00\n      dup3\n      add\n      dup1\n      sload\n      tag_106\n      swap1\n      tag_66\n      jump\t// in\n    tag_106:\n      dup1\n      0x1f\n      add\n      0x20\n      dup1\n      swap2\n      div\n      mul\n      0x20\n      add\n      mload(0x40)\n      swap1\n      dup2\n      add\n      0x40\n      mstore\n      dup1\n      swap3\n      swap2\n      swap1\n      dup2\n      dup2\n      mstore\n      0x20\n      add\n      dup3\n      dup1\n      sload\n      tag_107\n      swap1\n      tag_66\n      jump\t// in\n    tag_107:\n      dup1\n      iszero\n      tag_108\n      jumpi\n      dup1\n      0x1f\n      lt\n      tag_109\n      jumpi\n      0x0100\n      dup1\n      dup4\n      sload\n      div\n      mul\n      dup4\n      mstore\n      swap2\n      0x20\n      add\n      swap2\n      jump(tag_108)\n    tag_109:\n      dup3\n      add\n      swap2\n      swap1\n      0x00\n      mstore\n      keccak256(0x00, 0x20)\n      swap1\n    tag_110:\n      dup2\n      sload\n      dup2\n      mstore\n      swap1\n      0x01\n      add\n      swap1\n      0x20\n      add\n      dup1\n      dup4\n      gt\n      tag_110\n      jumpi\n      dup3\n      swap1\n      sub\n      0x1f\n      and\n      dup3\n      add\n      swap2\n    tag_108:\n      pop\n      pop\n      pop\n      pop\n      pop\n      dup2\n      mstore\n      0x20\n      add\n      0x01\n      dup3\n      add\n      0x00\n      swap1\n      sload\n      swap1\n      0x0100\n      exp\n      swap1\n      div\n      0xffffffffffffffff\n      and\n      0xffffffffffffffff\n      and\n      0xffffffffffffffff\n      and\n      dup2\n      mstore\n      0x20\n      add\n      0x01\n      dup3\n      add\n      0x08\n      swap1\n      sload\n      swap1\n      0x0100\n      exp\n      swap1\n      div\n      0xff\n      and\n      iszero\n      iszero\n      iszero\n      iszero\n      dup2\n      mstore\n      pop\n      pop\n      swap1\n      pop\n        /* \"backend/web3/Purpose.sol\":3489:3712  function atKey(MissionDatabase storage self, string memory key)... */\n      swap3\n      swap2\n      pop\n      pop\n      jump\t// out\n        /* \"backend/web3/Purpose.sol\":2265:2692  function remove(MissionDatabase storage self, string memory key)... */\n    tag_44:\n        /* \"backend/web3/Purpose.sol\":2364:2378  Mission memory */\n      tag_111\n      tag_38\n      jump\t// in\n    tag_111:\n        /* \"backend/web3/Purpose.sol\":2380:2384  bool */\n      0x00\n        /* \"backend/web3/Purpose.sol\":2400:2413  uint256 index */\n      dup1\n        /* \"backend/web3/Purpose.sol\":2416:2420  self */\n      dup5\n        /* \"backend/web3/Purpose.sol\":2416:2424  self.map */\n      0x01\n      add\n        /* \"backend/web3/Purpose.sol\":2425:2428  key */\n      dup5\n        /* \"backend/web3/Purpose.sol\":2416:2429  self.map[key] */\n      mload(0x40)\n      tag_113\n      swap2\n      swap1\n      tag_73\n      jump\t// in\n    tag_113:\n      swap1\n      dup2\n      mstore\n      0x20\n      add\n      mload(0x40)\n      dup1\n      swap2\n      sub\n      swap1\n      keccak256\n        /* \"backend/web3/Purpose.sol\":2416:2435  self.map[key].index */\n      0x00\n      add\n      sload\n        /* \"backend/web3/Purpose.sol\":2400:2435  uint256 index = self.map[key].index */\n      swap1\n      pop\n        /* \"backend/web3/Purpose.sol\":2458:2459  0 */\n      0x00\n        /* \"backend/web3/Purpose.sol\":2449:2454  index */\n      dup2\n        /* \"backend/web3/Purpose.sol\":2449:2459  index == 0 */\n      eq\n        /* \"backend/web3/Purpose.sol\":2445:2516  if (index == 0) {... */\n      iszero\n      tag_114\n      jumpi\n        /* \"backend/web3/Purpose.sol\":2483:2497  mission(\"\", 0) */\n      tag_115\n      mload(0x40)\n      dup1\n      0x20\n      add\n      0x40\n      mstore\n      dup1\n      0x00\n      dup2\n      mstore\n      pop\n        /* \"backend/web3/Purpose.sol\":2495:2496  0 */\n      0x00\n        /* \"backend/web3/Purpose.sol\":2483:2490  mission */\n      tag_89\n        /* \"backend/web3/Purpose.sol\":2483:2497  mission(\"\", 0) */\n      jump\t// in\n    tag_115:\n        /* \"backend/web3/Purpose.sol\":2499:2504  false */\n      0x00\n        /* \"backend/web3/Purpose.sol\":2475:2505  return (mission(\"\", 0), false) */\n      swap3\n      pop\n      swap3\n      pop\n      pop\n      jump(tag_112)\n        /* \"backend/web3/Purpose.sol\":2445:2516  if (index == 0) {... */\n    tag_114:\n        /* \"backend/web3/Purpose.sol\":2526:2555  Mission memory removedMission */\n      0x00\n        /* \"backend/web3/Purpose.sol\":2558:2562  self */\n      dup6\n        /* \"backend/web3/Purpose.sol\":2558:2566  self.map */\n      0x01\n      add\n        /* \"backend/web3/Purpose.sol\":2567:2570  key */\n      dup6\n        /* \"backend/web3/Purpose.sol\":2558:2571  self.map[key] */\n      mload(0x40)\n      tag_116\n      swap2\n      swap1\n      tag_73\n      jump\t// in\n    tag_116:\n      swap1\n      dup2\n      mstore\n      0x20\n      add\n      mload(0x40)\n      dup1\n      swap2\n      sub\n      swap1\n      keccak256\n        /* \"backend/web3/Purpose.sol\":2558:2577  self.map[key].value */\n      0x01\n      add\n        /* \"backend/web3/Purpose.sol\":2526:2577  Mission memory removedMission = self.map[key].value */\n      mload(0x40)\n      dup1\n      0x60\n      add\n      0x40\n      mstore\n      swap1\n      dup2\n      0x00\n      dup3\n      add\n      dup1\n      sload\n      tag_117\n      swap1\n      tag_66\n      jump\t// in\n    tag_117:\n      dup1\n      0x1f\n      add\n      0x20\n      dup1\n      swap2\n      div\n      mul\n      0x20\n      add\n      mload(0x40)\n      swap1\n      dup2\n      add\n      0x40\n      mstore\n      dup1\n      swap3\n      swap2\n      swap1\n      dup2\n      dup2\n      mstore\n      0x20\n      add\n      dup3\n      dup1\n      sload\n      tag_118\n      swap1\n      tag_66\n      jump\t// in\n    tag_118:\n      dup1\n      iszero\n      tag_119\n      jumpi\n      dup1\n      0x1f\n      lt\n      tag_120\n      jumpi\n      0x0100\n      dup1\n      dup4\n      sload\n      div\n      mul\n      dup4\n      mstore\n      swap2\n      0x20\n      add\n      swap2\n      jump(tag_119)\n    tag_120:\n      dup3\n      add\n      swap2\n      swap1\n      0x00\n      mstore\n      keccak256(0x00, 0x20)\n      swap1\n    tag_121:\n      dup2\n      sload\n      dup2\n      mstore\n      swap1\n      0x01\n      add\n      swap1\n      0x20\n      add\n      dup1\n      dup4\n      gt\n      tag_121\n      jumpi\n      dup3\n      swap1\n      sub\n      0x1f\n      and\n      dup3\n      add\n      swap2\n    tag_119:\n      pop\n      pop\n      pop\n      pop\n      pop\n      dup2\n      mstore\n      0x20\n      add\n      0x01\n      dup3\n      add\n      0x00\n      swap1\n      sload\n      swap1\n      0x0100\n      exp\n      swap1\n      div\n      0xffffffffffffffff\n      and\n      0xffffffffffffffff\n      and\n      0xffffffffffffffff\n      and\n      dup2\n      mstore\n      0x20\n      add\n      0x01\n      dup3\n      add\n      0x08\n      swap1\n      sload\n      swap1\n      0x0100\n      exp\n      swap1\n      div\n      0xff\n      and\n      iszero\n      iszero\n      iszero\n      iszero\n      dup2\n      mstore\n      pop\n      pop\n      swap1\n      pop\n        /* \"backend/web3/Purpose.sol\":2619:2623  true */\n      0x01\n        /* \"backend/web3/Purpose.sol\":2588:2592  self */\n      dup7\n        /* \"backend/web3/Purpose.sol\":2588:2597  self.keys */\n      0x00\n      add\n        /* \"backend/web3/Purpose.sol\":2606:2607  1 */\n      0x01\n        /* \"backend/web3/Purpose.sol\":2598:2603  index */\n      dup5\n        /* \"backend/web3/Purpose.sol\":2598:2607  index - 1 */\n      tag_122\n      swap2\n      swap1\n      tag_123\n      jump\t// in\n    tag_122:\n        /* \"backend/web3/Purpose.sol\":2588:2608  self.keys[index - 1] */\n      dup2\n      sload\n      dup2\n      lt\n      tag_124\n      jumpi\n      tag_125\n      tag_63\n      jump\t// in\n    tag_125:\n    tag_124:\n      swap1\n      0x00\n      mstore\n      keccak256(0x00, 0x20)\n      swap1\n      0x02\n      mul\n      add\n        /* \"backend/web3/Purpose.sol\":2588:2616  self.keys[index - 1].deleted */\n      0x00\n      add\n      0x00\n        /* \"backend/web3/Purpose.sol\":2588:2623  self.keys[index - 1].deleted = true */\n      0x0100\n      exp\n      dup2\n      sload\n      dup2\n      0xff\n      mul\n      not\n      and\n      swap1\n      dup4\n      iszero\n      iszero\n      mul\n      or\n      swap1\n      sstore\n      pop\n        /* \"backend/web3/Purpose.sol\":2634:2638  self */\n      dup6\n        /* \"backend/web3/Purpose.sol\":2634:2643  self.size */\n      0x02\n      add\n      0x00\n        /* \"backend/web3/Purpose.sol\":2634:2645  self.size-- */\n      dup2\n      sload\n      dup1\n      swap3\n      swap2\n      swap1\n      tag_127\n      swap1\n      tag_128\n      jump\t// in\n    tag_127:\n      swap2\n      swap1\n      pop\n      sstore\n      pop\n        /* \"backend/web3/Purpose.sol\":2664:2678  removedMission */\n      dup1\n        /* \"backend/web3/Purpose.sol\":2680:2684  true */\n      0x01\n        /* \"backend/web3/Purpose.sol\":2656:2685  return (removedMission, true) */\n      swap4\n      pop\n      swap4\n      pop\n      pop\n      pop\n        /* \"backend/web3/Purpose.sol\":2265:2692  function remove(MissionDatabase storage self, string memory key)... */\n    tag_112:\n      swap3\n      pop\n      swap3\n      swap1\n      pop\n      jump\t// out\n        /* \"backend/web3/Purpose.sol\":3213:3483  function atIndex(MissionDatabase storage self, uint256 index)... */\n    tag_50:\n        /* \"backend/web3/Purpose.sol\":3322:3336  Mission memory */\n      tag_129\n      tag_38\n      jump\t// in\n    tag_129:\n        /* \"backend/web3/Purpose.sol\":3401:3418  string memory key */\n      0x00\n        /* \"backend/web3/Purpose.sol\":3421:3425  self */\n      dup4\n        /* \"backend/web3/Purpose.sol\":3421:3430  self.keys */\n      0x00\n      add\n        /* \"backend/web3/Purpose.sol\":3431:3436  index */\n      dup4\n        /* \"backend/web3/Purpose.sol\":3421:3437  self.keys[index] */\n      dup2\n      sload\n      dup2\n      lt\n      tag_131\n      jumpi\n      tag_132\n      tag_63\n      jump\t// in\n    tag_132:\n    tag_131:\n      swap1\n      0x00\n      mstore\n      keccak256(0x00, 0x20)\n      swap1\n      0x02\n      mul\n      add\n        /* \"backend/web3/Purpose.sol\":3421:3443  self.keys[index].value */\n      0x01\n      add\n        /* \"backend/web3/Purpose.sol\":3401:3443  string memory key = self.keys[index].value */\n      dup1\n      sload\n      tag_134\n      swap1\n      tag_66\n      jump\t// in\n    tag_134:\n      dup1\n      0x1f\n      add\n      0x20\n      dup1\n      swap2\n      div\n      mul\n      0x20\n      add\n      mload(0x40)\n      swap1\n      dup2\n      add\n      0x40\n      mstore\n      dup1\n      swap3\n      swap2\n      swap1\n      dup2\n      dup2\n      mstore\n      0x20\n      add\n      dup3\n      dup1\n      sload\n      tag_135\n      swap1\n      tag_66\n      jump\t// in\n    tag_135:\n      dup1\n      iszero\n      tag_136\n      jumpi\n      dup1\n      0x1f\n      lt\n      tag_137\n      jumpi\n      0x0100\n      dup1\n      dup4\n      sload\n      div\n      mul\n      dup4\n      mstore\n      swap2\n      0x20\n      add\n      swap2\n      jump(tag_136)\n    tag_137:\n      dup3\n      add\n      swap2\n      swap1\n      0x00\n      mstore\n      keccak256(0x00, 0x20)\n      swap1\n    tag_138:\n      dup2\n      sload\n      dup2\n      mstore\n      swap1\n      0x01\n      add\n      swap1\n      0x20\n      add\n      dup1\n      dup4\n      gt\n      tag_138\n      jumpi\n      dup3\n      swap1\n      sub\n      0x1f\n      and\n      dup3\n      add\n      swap2\n    tag_136:\n      pop\n      pop\n      pop\n      pop\n      pop\n      swap1\n      pop\n        /* \"backend/web3/Purpose.sol\":3460:3476  atKey(self, key) */\n      tag_139\n        /* \"backend/web3/Purpose.sol\":3466:3470  self */\n      dup5\n        /* \"backend/web3/Purpose.sol\":3472:3475  key */\n      dup3\n        /* \"backend/web3/Purpose.sol\":3460:3465  atKey */\n      tag_41\n        /* \"backend/web3/Purpose.sol\":3460:3476  atKey(self, key) */\n      jump\t// in\n    tag_139:\n        /* \"backend/web3/Purpose.sol\":3453:3476  return atKey(self, key) */\n      swap2\n      pop\n      pop\n        /* \"backend/web3/Purpose.sol\":3213:3483  function atIndex(MissionDatabase storage self, uint256 index)... */\n      swap3\n      swap2\n      pop\n      pop\n      jump\t// out\n        /* \"backend/web3/Purpose.sol\":1438:1632  function mission(string memory key, uint64 index)... */\n    tag_89:\n        /* \"backend/web3/Purpose.sol\":1534:1548  Mission memory */\n      tag_140\n      tag_38\n      jump\t// in\n    tag_140:\n        /* \"backend/web3/Purpose.sol\":1571:1625  Mission({title: key, payout: index, completed: false}) */\n      mload(0x40)\n      dup1\n      0x60\n      add\n      0x40\n      mstore\n      dup1\n        /* \"backend/web3/Purpose.sol\":1587:1590  key */\n      dup5\n        /* \"backend/web3/Purpose.sol\":1571:1625  Mission({title: key, payout: index, completed: false}) */\n      dup2\n      mstore\n      0x20\n      add\n        /* \"backend/web3/Purpose.sol\":1600:1605  index */\n      dup4\n        /* \"backend/web3/Purpose.sol\":1571:1625  Mission({title: key, payout: index, completed: false}) */\n      0xffffffffffffffff\n      and\n      dup2\n      mstore\n      0x20\n      add\n        /* \"backend/web3/Purpose.sol\":1618:1623  false */\n      0x00\n        /* \"backend/web3/Purpose.sol\":1571:1625  Mission({title: key, payout: index, completed: false}) */\n      iszero\n      iszero\n      dup2\n      mstore\n      pop\n        /* \"backend/web3/Purpose.sol\":1564:1625  return Mission({title: key, payout: index, completed: false}) */\n      swap1\n      pop\n        /* \"backend/web3/Purpose.sol\":1438:1632  function mission(string memory key, uint64 index)... */\n      swap3\n      swap2\n      pop\n      pop\n      jump\t// out\n    tag_38:\n      mload(0x40)\n      dup1\n      0x60\n      add\n      0x40\n      mstore\n      dup1\n      0x60\n      dup2\n      mstore\n      0x20\n      add\n      and(0xffffffffffffffff, 0x00)\n      dup2\n      mstore\n      0x20\n      add\n      iszero(iszero(0x00))\n      dup2\n      mstore\n      pop\n      swap1\n      jump\t// out\n    tag_96:\n      dup3\n      dup1\n      sload\n      tag_142\n      swap1\n      tag_66\n      jump\t// in\n    tag_142:\n      swap1\n      0x00\n      mstore\n      keccak256(0x00, 0x20)\n      swap1\n      0x1f\n      add\n      0x20\n      swap1\n      div\n      dup2\n      add\n      swap3\n      dup3\n      tag_144\n      jumpi\n      0x00\n      dup6\n      sstore\n      jump(tag_143)\n    tag_144:\n      dup3\n      0x1f\n      lt\n      tag_145\n      jumpi\n      dup1\n      mload\n      not(0xff)\n      and\n      dup4\n      dup1\n      add\n      or\n      dup6\n      sstore\n      jump(tag_143)\n    tag_145:\n      dup3\n      dup1\n      add\n      0x01\n      add\n      dup6\n      sstore\n      dup3\n      iszero\n      tag_143\n      jumpi\n      swap2\n      dup3\n      add\n    tag_146:\n      dup3\n      dup2\n      gt\n      iszero\n      tag_147\n      jumpi\n      dup3\n      mload\n      dup3\n      sstore\n      swap2\n      0x20\n      add\n      swap2\n      swap1\n      0x01\n      add\n      swap1\n      jump(tag_146)\n    tag_147:\n    tag_143:\n      pop\n      swap1\n      pop\n      tag_148\n      swap2\n      swap1\n      tag_149\n      jump\t// in\n    tag_148:\n      pop\n      swap1\n      jump\t// out\n    tag_149:\n    tag_150:\n      dup1\n      dup3\n      gt\n      iszero\n      tag_151\n      jumpi\n      0x00\n      dup2\n      0x00\n      swap1\n      sstore\n      pop\n      0x01\n      add\n      jump(tag_150)\n    tag_151:\n      pop\n      swap1\n      jump\t// out\n        /* \"#utility.yul\":7:419   */\n    tag_153:\n        /* \"#utility.yul\":85:90   */\n      0x00\n        /* \"#utility.yul\":110:176   */\n      tag_155\n        /* \"#utility.yul\":126:175   */\n      tag_156\n        /* \"#utility.yul\":168:174   */\n      dup5\n        /* \"#utility.yul\":126:175   */\n      tag_157\n      jump\t// in\n    tag_156:\n        /* \"#utility.yul\":110:176   */\n      tag_158\n      jump\t// in\n    tag_155:\n        /* \"#utility.yul\":101:176   */\n      swap1\n      pop\n        /* \"#utility.yul\":199:205   */\n      dup3\n        /* \"#utility.yul\":192:197   */\n      dup2\n        /* \"#utility.yul\":185:206   */\n      mstore\n        /* \"#utility.yul\":237:241   */\n      0x20\n        /* \"#utility.yul\":230:235   */\n      dup2\n        /* \"#utility.yul\":226:242   */\n      add\n        /* \"#utility.yul\":275:278   */\n      dup5\n        /* \"#utility.yul\":266:272   */\n      dup5\n        /* \"#utility.yul\":261:264   */\n      dup5\n        /* \"#utility.yul\":257:273   */\n      add\n        /* \"#utility.yul\":254:279   */\n      gt\n        /* \"#utility.yul\":251:363   */\n      iszero\n      tag_159\n      jumpi\n        /* \"#utility.yul\":282:361   */\n      tag_160\n      tag_161\n      jump\t// in\n    tag_160:\n        /* \"#utility.yul\":251:363   */\n    tag_159:\n        /* \"#utility.yul\":372:413   */\n      tag_162\n        /* \"#utility.yul\":406:412   */\n      dup5\n        /* \"#utility.yul\":401:404   */\n      dup3\n        /* \"#utility.yul\":396:399   */\n      dup6\n        /* \"#utility.yul\":372:413   */\n      tag_163\n      jump\t// in\n    tag_162:\n        /* \"#utility.yul\":91:419   */\n      pop\n        /* \"#utility.yul\":7:419   */\n      swap4\n      swap3\n      pop\n      pop\n      pop\n      jump\t// out\n        /* \"#utility.yul\":439:779   */\n    tag_164:\n        /* \"#utility.yul\":495:500   */\n      0x00\n        /* \"#utility.yul\":544:547   */\n      dup3\n        /* \"#utility.yul\":537:541   */\n      0x1f\n        /* \"#utility.yul\":529:535   */\n      dup4\n        /* \"#utility.yul\":525:542   */\n      add\n        /* \"#utility.yul\":521:548   */\n      slt\n        /* \"#utility.yul\":511:633   */\n      tag_166\n      jumpi\n        /* \"#utility.yul\":552:631   */\n      tag_167\n      tag_168\n      jump\t// in\n    tag_167:\n        /* \"#utility.yul\":511:633   */\n    tag_166:\n        /* \"#utility.yul\":669:675   */\n      dup2\n        /* \"#utility.yul\":656:676   */\n      calldataload\n        /* \"#utility.yul\":694:773   */\n      tag_169\n        /* \"#utility.yul\":769:772   */\n      dup5\n        /* \"#utility.yul\":761:767   */\n      dup3\n        /* \"#utility.yul\":754:758   */\n      0x20\n        /* \"#utility.yul\":746:752   */\n      dup7\n        /* \"#utility.yul\":742:759   */\n      add\n        /* \"#utility.yul\":694:773   */\n      tag_153\n      jump\t// in\n    tag_169:\n        /* \"#utility.yul\":685:773   */\n      swap2\n      pop\n        /* \"#utility.yul\":501:779   */\n      pop\n        /* \"#utility.yul\":439:779   */\n      swap3\n      swap2\n      pop\n      pop\n      jump\t// out\n        /* \"#utility.yul\":785:924   */\n    tag_170:\n        /* \"#utility.yul\":831:836   */\n      0x00\n        /* \"#utility.yul\":869:875   */\n      dup2\n        /* \"#utility.yul\":856:876   */\n      calldataload\n        /* \"#utility.yul\":847:876   */\n      swap1\n      pop\n        /* \"#utility.yul\":885:918   */\n      tag_172\n        /* \"#utility.yul\":912:917   */\n      dup2\n        /* \"#utility.yul\":885:918   */\n      tag_173\n      jump\t// in\n    tag_172:\n        /* \"#utility.yul\":785:924   */\n      swap3\n      swap2\n      pop\n      pop\n      jump\t// out\n        /* \"#utility.yul\":930:1439   */\n    tag_14:\n        /* \"#utility.yul\":999:1005   */\n      0x00\n        /* \"#utility.yul\":1048:1050   */\n      0x20\n        /* \"#utility.yul\":1036:1045   */\n      dup3\n        /* \"#utility.yul\":1027:1034   */\n      dup5\n        /* \"#utility.yul\":1023:1046   */\n      sub\n        /* \"#utility.yul\":1019:1051   */\n      slt\n        /* \"#utility.yul\":1016:1135   */\n      iszero\n      tag_175\n      jumpi\n        /* \"#utility.yul\":1054:1133   */\n      tag_176\n      tag_177\n      jump\t// in\n    tag_176:\n        /* \"#utility.yul\":1016:1135   */\n    tag_175:\n        /* \"#utility.yul\":1202:1203   */\n      0x00\n        /* \"#utility.yul\":1191:1200   */\n      dup3\n        /* \"#utility.yul\":1187:1204   */\n      add\n        /* \"#utility.yul\":1174:1205   */\n      calldataload\n        /* \"#utility.yul\":1232:1250   */\n      0xffffffffffffffff\n        /* \"#utility.yul\":1224:1230   */\n      dup2\n        /* \"#utility.yul\":1221:1251   */\n      gt\n        /* \"#utility.yul\":1218:1335   */\n      iszero\n      tag_178\n      jumpi\n        /* \"#utility.yul\":1254:1333   */\n      tag_179\n      tag_180\n      jump\t// in\n    tag_179:\n        /* \"#utility.yul\":1218:1335   */\n    tag_178:\n        /* \"#utility.yul\":1359:1422   */\n      tag_181\n        /* \"#utility.yul\":1414:1421   */\n      dup5\n        /* \"#utility.yul\":1405:1411   */\n      dup3\n        /* \"#utility.yul\":1394:1403   */\n      dup6\n        /* \"#utility.yul\":1390:1412   */\n      add\n        /* \"#utility.yul\":1359:1422   */\n      tag_164\n      jump\t// in\n    tag_181:\n        /* \"#utility.yul\":1349:1422   */\n      swap2\n      pop\n        /* \"#utility.yul\":1145:1432   */\n      pop\n        /* \"#utility.yul\":930:1439   */\n      swap3\n      swap2\n      pop\n      pop\n      jump\t// out\n        /* \"#utility.yul\":1445:1774   */\n    tag_26:\n        /* \"#utility.yul\":1504:1510   */\n      0x00\n        /* \"#utility.yul\":1553:1555   */\n      0x20\n        /* \"#utility.yul\":1541:1550   */\n      dup3\n        /* \"#utility.yul\":1532:1539   */\n      dup5\n        /* \"#utility.yul\":1528:1551   */\n      sub\n        /* \"#utility.yul\":1524:1556   */\n      slt\n        /* \"#utility.yul\":1521:1640   */\n      iszero\n      tag_183\n      jumpi\n        /* \"#utility.yul\":1559:1638   */\n      tag_184\n      tag_177\n      jump\t// in\n    tag_184:\n        /* \"#utility.yul\":1521:1640   */\n    tag_183:\n        /* \"#utility.yul\":1679:1680   */\n      0x00\n        /* \"#utility.yul\":1704:1757   */\n      tag_185\n        /* \"#utility.yul\":1749:1756   */\n      dup5\n        /* \"#utility.yul\":1740:1746   */\n      dup3\n        /* \"#utility.yul\":1729:1738   */\n      dup6\n        /* \"#utility.yul\":1725:1747   */\n      add\n        /* \"#utility.yul\":1704:1757   */\n      tag_170\n      jump\t// in\n    tag_185:\n        /* \"#utility.yul\":1694:1757   */\n      swap2\n      pop\n        /* \"#utility.yul\":1650:1767   */\n      pop\n        /* \"#utility.yul\":1445:1774   */\n      swap3\n      swap2\n      pop\n      pop\n      jump\t// out\n        /* \"#utility.yul\":1780:2032   */\n    tag_186:\n        /* \"#utility.yul\":1897:1907   */\n      0x00\n        /* \"#utility.yul\":1932:2026   */\n      tag_188\n        /* \"#utility.yul\":2022:2025   */\n      dup4\n        /* \"#utility.yul\":2014:2020   */\n      dup4\n        /* \"#utility.yul\":1932:2026   */\n      tag_189\n      jump\t// in\n    tag_188:\n        /* \"#utility.yul\":1918:2026   */\n      swap1\n      pop\n        /* \"#utility.yul\":1780:2032   */\n      swap3\n      swap2\n      pop\n      pop\n      jump\t// out\n        /* \"#utility.yul\":2082:3185   */\n    tag_190:\n        /* \"#utility.yul\":2249:2252   */\n      0x00\n        /* \"#utility.yul\":2278:2356   */\n      tag_192\n        /* \"#utility.yul\":2350:2355   */\n      dup3\n        /* \"#utility.yul\":2278:2356   */\n      tag_193\n      jump\t// in\n    tag_192:\n        /* \"#utility.yul\":2372:2482   */\n      tag_194\n        /* \"#utility.yul\":2475:2481   */\n      dup2\n        /* \"#utility.yul\":2470:2473   */\n      dup6\n        /* \"#utility.yul\":2372:2482   */\n      tag_195\n      jump\t// in\n    tag_194:\n        /* \"#utility.yul\":2365:2482   */\n      swap4\n      pop\n        /* \"#utility.yul\":2508:2511   */\n      dup4\n        /* \"#utility.yul\":2553:2557   */\n      0x20\n        /* \"#utility.yul\":2545:2551   */\n      dup3\n        /* \"#utility.yul\":2541:2558   */\n      mul\n        /* \"#utility.yul\":2536:2539   */\n      dup6\n        /* \"#utility.yul\":2532:2559   */\n      add\n        /* \"#utility.yul\":2583:2663   */\n      tag_196\n        /* \"#utility.yul\":2657:2662   */\n      dup6\n        /* \"#utility.yul\":2583:2663   */\n      tag_197\n      jump\t// in\n    tag_196:\n        /* \"#utility.yul\":2686:2693   */\n      dup1\n        /* \"#utility.yul\":2717:2718   */\n      0x00\n        /* \"#utility.yul\":2702:3140   */\n    tag_198:\n        /* \"#utility.yul\":2727:2733   */\n      dup6\n        /* \"#utility.yul\":2724:2725   */\n      dup2\n        /* \"#utility.yul\":2721:2734   */\n      lt\n        /* \"#utility.yul\":2702:3140   */\n      iszero\n      tag_200\n      jumpi\n        /* \"#utility.yul\":2798:2807   */\n      dup5\n        /* \"#utility.yul\":2792:2796   */\n      dup5\n        /* \"#utility.yul\":2788:2808   */\n      sub\n        /* \"#utility.yul\":2783:2786   */\n      dup10\n        /* \"#utility.yul\":2776:2809   */\n      mstore\n        /* \"#utility.yul\":2849:2855   */\n      dup2\n        /* \"#utility.yul\":2843:2856   */\n      mload\n        /* \"#utility.yul\":2877:2989   */\n      tag_201\n        /* \"#utility.yul\":2984:2988   */\n      dup6\n        /* \"#utility.yul\":2969:2982   */\n      dup3\n        /* \"#utility.yul\":2877:2989   */\n      tag_186\n      jump\t// in\n    tag_201:\n        /* \"#utility.yul\":2869:2989   */\n      swap5\n      pop\n        /* \"#utility.yul\":3012:3096   */\n      tag_202\n        /* \"#utility.yul\":3089:3095   */\n      dup4\n        /* \"#utility.yul\":3012:3096   */\n      tag_203\n      jump\t// in\n    tag_202:\n        /* \"#utility.yul\":3002:3096   */\n      swap3\n      pop\n        /* \"#utility.yul\":3125:3129   */\n      0x20\n        /* \"#utility.yul\":3120:3123   */\n      dup11\n        /* \"#utility.yul\":3116:3130   */\n      add\n        /* \"#utility.yul\":3109:3130   */\n      swap10\n      pop\n        /* \"#utility.yul\":2762:3140   */\n      pop\n        /* \"#utility.yul\":2749:2750   */\n      0x01\n        /* \"#utility.yul\":2746:2747   */\n      dup2\n        /* \"#utility.yul\":2742:2751   */\n      add\n        /* \"#utility.yul\":2737:2751   */\n      swap1\n      pop\n        /* \"#utility.yul\":2702:3140   */\n      jump(tag_198)\n    tag_200:\n        /* \"#utility.yul\":2706:2720   */\n      pop\n        /* \"#utility.yul\":3156:3160   */\n      dup3\n        /* \"#utility.yul\":3149:3160   */\n      swap8\n      pop\n        /* \"#utility.yul\":3176:3179   */\n      dup8\n        /* \"#utility.yul\":3169:3179   */\n      swap6\n      pop\n        /* \"#utility.yul\":2254:3185   */\n      pop\n      pop\n      pop\n      pop\n      pop\n        /* \"#utility.yul\":2082:3185   */\n      swap3\n      swap2\n      pop\n      pop\n      jump\t// out\n        /* \"#utility.yul\":3191:3290   */\n    tag_204:\n        /* \"#utility.yul\":3262:3283   */\n      tag_206\n        /* \"#utility.yul\":3277:3282   */\n      dup2\n        /* \"#utility.yul\":3262:3283   */\n      tag_207\n      jump\t// in\n    tag_206:\n        /* \"#utility.yul\":3257:3260   */\n      dup3\n        /* \"#utility.yul\":3250:3284   */\n      mstore\n        /* \"#utility.yul\":3191:3290   */\n      pop\n      pop\n      jump\t// out\n        /* \"#utility.yul\":3296:3640   */\n    tag_208:\n        /* \"#utility.yul\":3374:3377   */\n      0x00\n        /* \"#utility.yul\":3402:3441   */\n      tag_210\n        /* \"#utility.yul\":3435:3440   */\n      dup3\n        /* \"#utility.yul\":3402:3441   */\n      tag_211\n      jump\t// in\n    tag_210:\n        /* \"#utility.yul\":3457:3518   */\n      tag_212\n        /* \"#utility.yul\":3511:3517   */\n      dup2\n        /* \"#utility.yul\":3506:3509   */\n      dup6\n        /* \"#utility.yul\":3457:3518   */\n      tag_213\n      jump\t// in\n    tag_212:\n        /* \"#utility.yul\":3450:3518   */\n      swap4\n      pop\n        /* \"#utility.yul\":3527:3579   */\n      tag_214\n        /* \"#utility.yul\":3572:3578   */\n      dup2\n        /* \"#utility.yul\":3567:3570   */\n      dup6\n        /* \"#utility.yul\":3560:3564   */\n      0x20\n        /* \"#utility.yul\":3553:3558   */\n      dup7\n        /* \"#utility.yul\":3549:3565   */\n      add\n        /* \"#utility.yul\":3527:3579   */\n      tag_215\n      jump\t// in\n    tag_214:\n        /* \"#utility.yul\":3604:3633   */\n      tag_216\n        /* \"#utility.yul\":3626:3632   */\n      dup2\n        /* \"#utility.yul\":3604:3633   */\n      tag_217\n      jump\t// in\n    tag_216:\n        /* \"#utility.yul\":3599:3602   */\n      dup5\n        /* \"#utility.yul\":3595:3634   */\n      add\n        /* \"#utility.yul\":3588:3634   */\n      swap2\n      pop\n        /* \"#utility.yul\":3378:3640   */\n      pop\n        /* \"#utility.yul\":3296:3640   */\n      swap3\n      swap2\n      pop\n      pop\n      jump\t// out\n        /* \"#utility.yul\":3646:4023   */\n    tag_218:\n        /* \"#utility.yul\":3752:3755   */\n      0x00\n        /* \"#utility.yul\":3780:3819   */\n      tag_220\n        /* \"#utility.yul\":3813:3818   */\n      dup3\n        /* \"#utility.yul\":3780:3819   */\n      tag_211\n      jump\t// in\n    tag_220:\n        /* \"#utility.yul\":3835:3924   */\n      tag_221\n        /* \"#utility.yul\":3917:3923   */\n      dup2\n        /* \"#utility.yul\":3912:3915   */\n      dup6\n        /* \"#utility.yul\":3835:3924   */\n      tag_222\n      jump\t// in\n    tag_221:\n        /* \"#utility.yul\":3828:3924   */\n      swap4\n      pop\n        /* \"#utility.yul\":3933:3985   */\n      tag_223\n        /* \"#utility.yul\":3978:3984   */\n      dup2\n        /* \"#utility.yul\":3973:3976   */\n      dup6\n        /* \"#utility.yul\":3966:3970   */\n      0x20\n        /* \"#utility.yul\":3959:3964   */\n      dup7\n        /* \"#utility.yul\":3955:3971   */\n      add\n        /* \"#utility.yul\":3933:3985   */\n      tag_215\n      jump\t// in\n    tag_223:\n        /* \"#utility.yul\":4010:4016   */\n      dup1\n        /* \"#utility.yul\":4005:4008   */\n      dup5\n        /* \"#utility.yul\":4001:4017   */\n      add\n        /* \"#utility.yul\":3994:4017   */\n      swap2\n      pop\n        /* \"#utility.yul\":3756:4023   */\n      pop\n        /* \"#utility.yul\":3646:4023   */\n      swap3\n      swap2\n      pop\n      pop\n      jump\t// out\n        /* \"#utility.yul\":4069:4837   */\n    tag_189:\n        /* \"#utility.yul\":4176:4179   */\n      0x00\n        /* \"#utility.yul\":4212:4216   */\n      0x60\n        /* \"#utility.yul\":4207:4210   */\n      dup4\n        /* \"#utility.yul\":4203:4217   */\n      add\n        /* \"#utility.yul\":4300:4304   */\n      0x00\n        /* \"#utility.yul\":4293:4298   */\n      dup4\n        /* \"#utility.yul\":4289:4305   */\n      add\n        /* \"#utility.yul\":4283:4306   */\n      mload\n        /* \"#utility.yul\":4353:4356   */\n      dup5\n        /* \"#utility.yul\":4347:4351   */\n      dup3\n        /* \"#utility.yul\":4343:4357   */\n      sub\n        /* \"#utility.yul\":4336:4340   */\n      0x00\n        /* \"#utility.yul\":4331:4334   */\n      dup7\n        /* \"#utility.yul\":4327:4341   */\n      add\n        /* \"#utility.yul\":4320:4358   */\n      mstore\n        /* \"#utility.yul\":4379:4452   */\n      tag_225\n        /* \"#utility.yul\":4447:4451   */\n      dup3\n        /* \"#utility.yul\":4433:4445   */\n      dup3\n        /* \"#utility.yul\":4379:4452   */\n      tag_208\n      jump\t// in\n    tag_225:\n        /* \"#utility.yul\":4371:4452   */\n      swap2\n      pop\n        /* \"#utility.yul\":4227:4463   */\n      pop\n        /* \"#utility.yul\":4547:4551   */\n      0x20\n        /* \"#utility.yul\":4540:4545   */\n      dup4\n        /* \"#utility.yul\":4536:4552   */\n      add\n        /* \"#utility.yul\":4530:4553   */\n      mload\n        /* \"#utility.yul\":4566:4627   */\n      tag_226\n        /* \"#utility.yul\":4621:4625   */\n      0x20\n        /* \"#utility.yul\":4616:4619   */\n      dup7\n        /* \"#utility.yul\":4612:4626   */\n      add\n        /* \"#utility.yul\":4598:4610   */\n      dup3\n        /* \"#utility.yul\":4566:4627   */\n      tag_227\n      jump\t// in\n    tag_226:\n        /* \"#utility.yul\":4473:4637   */\n      pop\n        /* \"#utility.yul\":4724:4728   */\n      0x40\n        /* \"#utility.yul\":4717:4722   */\n      dup4\n        /* \"#utility.yul\":4713:4729   */\n      add\n        /* \"#utility.yul\":4707:4730   */\n      mload\n        /* \"#utility.yul\":4743:4800   */\n      tag_228\n        /* \"#utility.yul\":4794:4798   */\n      0x40\n        /* \"#utility.yul\":4789:4792   */\n      dup7\n        /* \"#utility.yul\":4785:4799   */\n      add\n        /* \"#utility.yul\":4771:4783   */\n      dup3\n        /* \"#utility.yul\":4743:4800   */\n      tag_204\n      jump\t// in\n    tag_228:\n        /* \"#utility.yul\":4647:4810   */\n      pop\n        /* \"#utility.yul\":4827:4831   */\n      dup1\n        /* \"#utility.yul\":4820:4831   */\n      swap2\n      pop\n        /* \"#utility.yul\":4181:4837   */\n      pop\n        /* \"#utility.yul\":4069:4837   */\n      swap3\n      swap2\n      pop\n      pop\n      jump\t// out\n        /* \"#utility.yul\":4883:5661   */\n    tag_229:\n        /* \"#utility.yul\":5000:5003   */\n      0x00\n        /* \"#utility.yul\":5036:5040   */\n      0x60\n        /* \"#utility.yul\":5031:5034   */\n      dup4\n        /* \"#utility.yul\":5027:5041   */\n      add\n        /* \"#utility.yul\":5124:5128   */\n      0x00\n        /* \"#utility.yul\":5117:5122   */\n      dup4\n        /* \"#utility.yul\":5113:5129   */\n      add\n        /* \"#utility.yul\":5107:5130   */\n      mload\n        /* \"#utility.yul\":5177:5180   */\n      dup5\n        /* \"#utility.yul\":5171:5175   */\n      dup3\n        /* \"#utility.yul\":5167:5181   */\n      sub\n        /* \"#utility.yul\":5160:5164   */\n      0x00\n        /* \"#utility.yul\":5155:5158   */\n      dup7\n        /* \"#utility.yul\":5151:5165   */\n      add\n        /* \"#utility.yul\":5144:5182   */\n      mstore\n        /* \"#utility.yul\":5203:5276   */\n      tag_231\n        /* \"#utility.yul\":5271:5275   */\n      dup3\n        /* \"#utility.yul\":5257:5269   */\n      dup3\n        /* \"#utility.yul\":5203:5276   */\n      tag_208\n      jump\t// in\n    tag_231:\n        /* \"#utility.yul\":5195:5276   */\n      swap2\n      pop\n        /* \"#utility.yul\":5051:5287   */\n      pop\n        /* \"#utility.yul\":5371:5375   */\n      0x20\n        /* \"#utility.yul\":5364:5369   */\n      dup4\n        /* \"#utility.yul\":5360:5376   */\n      add\n        /* \"#utility.yul\":5354:5377   */\n      mload\n        /* \"#utility.yul\":5390:5451   */\n      tag_232\n        /* \"#utility.yul\":5445:5449   */\n      0x20\n        /* \"#utility.yul\":5440:5443   */\n      dup7\n        /* \"#utility.yul\":5436:5450   */\n      add\n        /* \"#utility.yul\":5422:5434   */\n      dup3\n        /* \"#utility.yul\":5390:5451   */\n      tag_227\n      jump\t// in\n    tag_232:\n        /* \"#utility.yul\":5297:5461   */\n      pop\n        /* \"#utility.yul\":5548:5552   */\n      0x40\n        /* \"#utility.yul\":5541:5546   */\n      dup4\n        /* \"#utility.yul\":5537:5553   */\n      add\n        /* \"#utility.yul\":5531:5554   */\n      mload\n        /* \"#utility.yul\":5567:5624   */\n      tag_233\n        /* \"#utility.yul\":5618:5622   */\n      0x40\n        /* \"#utility.yul\":5613:5616   */\n      dup7\n        /* \"#utility.yul\":5609:5623   */\n      add\n        /* \"#utility.yul\":5595:5607   */\n      dup3\n        /* \"#utility.yul\":5567:5624   */\n      tag_204\n      jump\t// in\n    tag_233:\n        /* \"#utility.yul\":5471:5634   */\n      pop\n        /* \"#utility.yul\":5651:5655   */\n      dup1\n        /* \"#utility.yul\":5644:5655   */\n      swap2\n      pop\n        /* \"#utility.yul\":5005:5661   */\n      pop\n        /* \"#utility.yul\":4883:5661   */\n      swap3\n      swap2\n      pop\n      pop\n      jump\t// out\n        /* \"#utility.yul\":5667:5772   */\n    tag_227:\n        /* \"#utility.yul\":5742:5765   */\n      tag_235\n        /* \"#utility.yul\":5759:5764   */\n      dup2\n        /* \"#utility.yul\":5742:5765   */\n      tag_236\n      jump\t// in\n    tag_235:\n        /* \"#utility.yul\":5737:5740   */\n      dup3\n        /* \"#utility.yul\":5730:5766   */\n      mstore\n        /* \"#utility.yul\":5667:5772   */\n      pop\n      pop\n      jump\t// out\n        /* \"#utility.yul\":5778:6053   */\n    tag_73:\n        /* \"#utility.yul\":5910:5913   */\n      0x00\n        /* \"#utility.yul\":5932:6027   */\n      tag_238\n        /* \"#utility.yul\":6023:6026   */\n      dup3\n        /* \"#utility.yul\":6014:6020   */\n      dup5\n        /* \"#utility.yul\":5932:6027   */\n      tag_218\n      jump\t// in\n    tag_238:\n        /* \"#utility.yul\":5925:6027   */\n      swap2\n      pop\n        /* \"#utility.yul\":6044:6047   */\n      dup2\n        /* \"#utility.yul\":6037:6047   */\n      swap1\n      pop\n        /* \"#utility.yul\":5778:6053   */\n      swap3\n      swap2\n      pop\n      pop\n      jump\t// out\n        /* \"#utility.yul\":6059:6528   */\n    tag_11:\n        /* \"#utility.yul\":6250:6254   */\n      0x00\n        /* \"#utility.yul\":6288:6290   */\n      0x20\n        /* \"#utility.yul\":6277:6286   */\n      dup3\n        /* \"#utility.yul\":6273:6291   */\n      add\n        /* \"#utility.yul\":6265:6291   */\n      swap1\n      pop\n        /* \"#utility.yul\":6337:6346   */\n      dup2\n        /* \"#utility.yul\":6331:6335   */\n      dup2\n        /* \"#utility.yul\":6327:6347   */\n      sub\n        /* \"#utility.yul\":6323:6324   */\n      0x00\n        /* \"#utility.yul\":6312:6321   */\n      dup4\n        /* \"#utility.yul\":6308:6325   */\n      add\n        /* \"#utility.yul\":6301:6348   */\n      mstore\n        /* \"#utility.yul\":6365:6521   */\n      tag_240\n        /* \"#utility.yul\":6516:6520   */\n      dup2\n        /* \"#utility.yul\":6507:6513   */\n      dup5\n        /* \"#utility.yul\":6365:6521   */\n      tag_190\n      jump\t// in\n    tag_240:\n        /* \"#utility.yul\":6357:6521   */\n      swap1\n      pop\n        /* \"#utility.yul\":6059:6528   */\n      swap3\n      swap2\n      pop\n      pop\n      jump\t// out\n        /* \"#utility.yul\":6534:6903   */\n    tag_20:\n        /* \"#utility.yul\":6675:6679   */\n      0x00\n        /* \"#utility.yul\":6713:6715   */\n      0x20\n        /* \"#utility.yul\":6702:6711   */\n      dup3\n        /* \"#utility.yul\":6698:6716   */\n      add\n        /* \"#utility.yul\":6690:6716   */\n      swap1\n      pop\n        /* \"#utility.yul\":6762:6771   */\n      dup2\n        /* \"#utility.yul\":6756:6760   */\n      dup2\n        /* \"#utility.yul\":6752:6772   */\n      sub\n        /* \"#utility.yul\":6748:6749   */\n      0x00\n        /* \"#utility.yul\":6737:6746   */\n      dup4\n        /* \"#utility.yul\":6733:6750   */\n      add\n        /* \"#utility.yul\":6726:6773   */\n      mstore\n        /* \"#utility.yul\":6790:6896   */\n      tag_242\n        /* \"#utility.yul\":6891:6895   */\n      dup2\n        /* \"#utility.yul\":6882:6888   */\n      dup5\n        /* \"#utility.yul\":6790:6896   */\n      tag_229\n      jump\t// in\n    tag_242:\n        /* \"#utility.yul\":6782:6896   */\n      swap1\n      pop\n        /* \"#utility.yul\":6534:6903   */\n      swap3\n      swap2\n      pop\n      pop\n      jump\t// out\n        /* \"#utility.yul\":6909:7038   */\n    tag_158:\n        /* \"#utility.yul\":6943:6949   */\n      0x00\n        /* \"#utility.yul\":6970:6990   */\n      tag_244\n      tag_245\n      jump\t// in\n    tag_244:\n        /* \"#utility.yul\":6960:6990   */\n      swap1\n      pop\n        /* \"#utility.yul\":6999:7032   */\n      tag_246\n        /* \"#utility.yul\":7027:7031   */\n      dup3\n        /* \"#utility.yul\":7019:7025   */\n      dup3\n        /* \"#utility.yul\":6999:7032   */\n      tag_247\n      jump\t// in\n    tag_246:\n        /* \"#utility.yul\":6909:7038   */\n      swap2\n      swap1\n      pop\n      jump\t// out\n        /* \"#utility.yul\":7044:7119   */\n    tag_245:\n        /* \"#utility.yul\":7077:7083   */\n      0x00\n        /* \"#utility.yul\":7110:7112   */\n      0x40\n        /* \"#utility.yul\":7104:7113   */\n      mload\n        /* \"#utility.yul\":7094:7113   */\n      swap1\n      pop\n        /* \"#utility.yul\":7044:7119   */\n      swap1\n      jump\t// out\n        /* \"#utility.yul\":7125:7433   */\n    tag_157:\n        /* \"#utility.yul\":7187:7191   */\n      0x00\n        /* \"#utility.yul\":7277:7295   */\n      0xffffffffffffffff\n        /* \"#utility.yul\":7269:7275   */\n      dup3\n        /* \"#utility.yul\":7266:7296   */\n      gt\n        /* \"#utility.yul\":7263:7319   */\n      iszero\n      tag_250\n      jumpi\n        /* \"#utility.yul\":7299:7317   */\n      tag_251\n      tag_54\n      jump\t// in\n    tag_251:\n        /* \"#utility.yul\":7263:7319   */\n    tag_250:\n        /* \"#utility.yul\":7337:7366   */\n      tag_252\n        /* \"#utility.yul\":7359:7365   */\n      dup3\n        /* \"#utility.yul\":7337:7366   */\n      tag_217\n      jump\t// in\n    tag_252:\n        /* \"#utility.yul\":7329:7366   */\n      swap1\n      pop\n        /* \"#utility.yul\":7421:7425   */\n      0x20\n        /* \"#utility.yul\":7415:7419   */\n      dup2\n        /* \"#utility.yul\":7411:7426   */\n      add\n        /* \"#utility.yul\":7403:7426   */\n      swap1\n      pop\n        /* \"#utility.yul\":7125:7433   */\n      swap2\n      swap1\n      pop\n      jump\t// out\n        /* \"#utility.yul\":7439:7595   */\n    tag_197:\n        /* \"#utility.yul\":7530:7534   */\n      0x00\n        /* \"#utility.yul\":7553:7556   */\n      dup2\n        /* \"#utility.yul\":7545:7556   */\n      swap1\n      pop\n        /* \"#utility.yul\":7583:7587   */\n      0x20\n        /* \"#utility.yul\":7578:7581   */\n      dup3\n        /* \"#utility.yul\":7574:7588   */\n      add\n        /* \"#utility.yul\":7566:7588   */\n      swap1\n      pop\n        /* \"#utility.yul\":7439:7595   */\n      swap2\n      swap1\n      pop\n      jump\t// out\n        /* \"#utility.yul\":7601:7739   */\n    tag_193:\n        /* \"#utility.yul\":7692:7698   */\n      0x00\n        /* \"#utility.yul\":7726:7731   */\n      dup2\n        /* \"#utility.yul\":7720:7732   */\n      mload\n        /* \"#utility.yul\":7710:7732   */\n      swap1\n      pop\n        /* \"#utility.yul\":7601:7739   */\n      swap2\n      swap1\n      pop\n      jump\t// out\n        /* \"#utility.yul\":7745:7844   */\n    tag_211:\n        /* \"#utility.yul\":7797:7803   */\n      0x00\n        /* \"#utility.yul\":7831:7836   */\n      dup2\n        /* \"#utility.yul\":7825:7837   */\n      mload\n        /* \"#utility.yul\":7815:7837   */\n      swap1\n      pop\n        /* \"#utility.yul\":7745:7844   */\n      swap2\n      swap1\n      pop\n      jump\t// out\n        /* \"#utility.yul\":7850:7987   */\n    tag_203:\n        /* \"#utility.yul\":7944:7948   */\n      0x00\n        /* \"#utility.yul\":7976:7980   */\n      0x20\n        /* \"#utility.yul\":7971:7974   */\n      dup3\n        /* \"#utility.yul\":7967:7981   */\n      add\n        /* \"#utility.yul\":7959:7981   */\n      swap1\n      pop\n        /* \"#utility.yul\":7850:7987   */\n      swap2\n      swap1\n      pop\n      jump\t// out\n        /* \"#utility.yul\":7993:8201   */\n    tag_195:\n        /* \"#utility.yul\":8116:8127   */\n      0x00\n        /* \"#utility.yul\":8150:8156   */\n      dup3\n        /* \"#utility.yul\":8145:8148   */\n      dup3\n        /* \"#utility.yul\":8138:8157   */\n      mstore\n        /* \"#utility.yul\":8190:8194   */\n      0x20\n        /* \"#utility.yul\":8185:8188   */\n      dup3\n        /* \"#utility.yul\":8181:8195   */\n      add\n        /* \"#utility.yul\":8166:8195   */\n      swap1\n      pop\n        /* \"#utility.yul\":7993:8201   */\n      swap3\n      swap2\n      pop\n      pop\n      jump\t// out\n        /* \"#utility.yul\":8207:8366   */\n    tag_213:\n        /* \"#utility.yul\":8281:8292   */\n      0x00\n        /* \"#utility.yul\":8315:8321   */\n      dup3\n        /* \"#utility.yul\":8310:8313   */\n      dup3\n        /* \"#utility.yul\":8303:8322   */\n      mstore\n        /* \"#utility.yul\":8355:8359   */\n      0x20\n        /* \"#utility.yul\":8350:8353   */\n      dup3\n        /* \"#utility.yul\":8346:8360   */\n      add\n        /* \"#utility.yul\":8331:8360   */\n      swap1\n      pop\n        /* \"#utility.yul\":8207:8366   */\n      swap3\n      swap2\n      pop\n      pop\n      jump\t// out\n        /* \"#utility.yul\":8372:8520   */\n    tag_222:\n        /* \"#utility.yul\":8474:8485   */\n      0x00\n        /* \"#utility.yul\":8511:8514   */\n      dup2\n        /* \"#utility.yul\":8496:8514   */\n      swap1\n      pop\n        /* \"#utility.yul\":8372:8520   */\n      swap3\n      swap2\n      pop\n      pop\n      jump\t// out\n        /* \"#utility.yul\":8526:8831   */\n    tag_98:\n        /* \"#utility.yul\":8566:8569   */\n      0x00\n        /* \"#utility.yul\":8585:8605   */\n      tag_261\n        /* \"#utility.yul\":8603:8604   */\n      dup3\n        /* \"#utility.yul\":8585:8605   */\n      tag_262\n      jump\t// in\n    tag_261:\n        /* \"#utility.yul\":8580:8605   */\n      swap2\n      pop\n        /* \"#utility.yul\":8619:8639   */\n      tag_263\n        /* \"#utility.yul\":8637:8638   */\n      dup4\n        /* \"#utility.yul\":8619:8639   */\n      tag_262\n      jump\t// in\n    tag_263:\n        /* \"#utility.yul\":8614:8639   */\n      swap3\n      pop\n        /* \"#utility.yul\":8773:8774   */\n      dup3\n        /* \"#utility.yul\":8705:8771   */\n      0xffffffffffffffffffffffffffffffffffffffffffffffffffffffffffffffff\n        /* \"#utility.yul\":8701:8775   */\n      sub\n        /* \"#utility.yul\":8698:8699   */\n      dup3\n        /* \"#utility.yul\":8695:8776   */\n      gt\n        /* \"#utility.yul\":8692:8799   */\n      iszero\n      tag_264\n      jumpi\n        /* \"#utility.yul\":8779:8797   */\n      tag_265\n      tag_266\n      jump\t// in\n    tag_265:\n        /* \"#utility.yul\":8692:8799   */\n    tag_264:\n        /* \"#utility.yul\":8823:8824   */\n      dup3\n        /* \"#utility.yul\":8820:8821   */\n      dup3\n        /* \"#utility.yul\":8816:8825   */\n      add\n        /* \"#utility.yul\":8809:8825   */\n      swap1\n      pop\n        /* \"#utility.yul\":8526:8831   */\n      swap3\n      swap2\n      pop\n      pop\n      jump\t// out\n        /* \"#utility.yul\":8837:9028   */\n    tag_123:\n        /* \"#utility.yul\":8877:8881   */\n      0x00\n        /* \"#utility.yul\":8897:8917   */\n      tag_268\n        /* \"#utility.yul\":8915:8916   */\n      dup3\n        /* \"#utility.yul\":8897:8917   */\n      tag_262\n      jump\t// in\n    tag_268:\n        /* \"#utility.yul\":8892:8917   */\n      swap2\n      pop\n        /* \"#utility.yul\":8931:8951   */\n      tag_269\n        /* \"#utility.yul\":8949:8950   */\n      dup4\n        /* \"#utility.yul\":8931:8951   */\n      tag_262\n      jump\t// in\n    tag_269:\n        /* \"#utility.yul\":8926:8951   */\n      swap3\n      pop\n        /* \"#utility.yul\":8970:8971   */\n      dup3\n        /* \"#utility.yul\":8967:8968   */\n      dup3\n        /* \"#utility.yul\":8964:8972   */\n      lt\n        /* \"#utility.yul\":8961:8995   */\n      iszero\n      tag_270\n      jumpi\n        /* \"#utility.yul\":8975:8993   */\n      tag_271\n      tag_266\n      jump\t// in\n    tag_271:\n        /* \"#utility.yul\":8961:8995   */\n    tag_270:\n        /* \"#utility.yul\":9020:9021   */\n      dup3\n        /* \"#utility.yul\":9017:9018   */\n      dup3\n        /* \"#utility.yul\":9013:9022   */\n      sub\n        /* \"#utility.yul\":9005:9022   */\n      swap1\n      pop\n        /* \"#utility.yul\":8837:9028   */\n      swap3\n      swap2\n      pop\n      pop\n      jump\t// out\n        /* \"#utility.yul\":9034:9124   */\n    tag_207:\n        /* \"#utility.yul\":9068:9075   */\n      0x00\n        /* \"#utility.yul\":9111:9116   */\n      dup2\n        /* \"#utility.yul\":9104:9117   */\n      iszero\n        /* \"#utility.yul\":9097:9118   */\n      iszero\n        /* \"#utility.yul\":9086:9118   */\n      swap1\n      pop\n        /* \"#utility.yul\":9034:9124   */\n      swap2\n      swap1\n      pop\n      jump\t// out\n        /* \"#utility.yul\":9130:9207   */\n    tag_262:\n        /* \"#utility.yul\":9167:9174   */\n      0x00\n        /* \"#utility.yul\":9196:9201   */\n      dup2\n        /* \"#utility.yul\":9185:9201   */\n      swap1\n      pop\n        /* \"#utility.yul\":9130:9207   */\n      swap2\n      swap1\n      pop\n      jump\t// out\n        /* \"#utility.yul\":9213:9314   */\n    tag_236:\n        /* \"#utility.yul\":9249:9256   */\n      0x00\n        /* \"#utility.yul\":9289:9307   */\n      0xffffffffffffffff\n        /* \"#utility.yul\":9282:9287   */\n      dup3\n        /* \"#utility.yul\":9278:9308   */\n      and\n        /* \"#utility.yul\":9267:9308   */\n      swap1\n      pop\n        /* \"#utility.yul\":9213:9314   */\n      swap2\n      swap1\n      pop\n      jump\t// out\n        /* \"#utility.yul\":9320:9474   */\n    tag_163:\n        /* \"#utility.yul\":9404:9410   */\n      dup3\n        /* \"#utility.yul\":9399:9402   */\n      dup2\n        /* \"#utility.yul\":9394:9397   */\n      dup4\n        /* \"#utility.yul\":9381:9411   */\n      calldatacopy\n        /* \"#utility.yul\":9466:9467   */\n      0x00\n        /* \"#utility.yul\":9457:9463   */\n      dup4\n        /* \"#utility.yul\":9452:9455   */\n      dup4\n        /* \"#utility.yul\":9448:9464   */\n      add\n        /* \"#utility.yul\":9441:9468   */\n      mstore\n        /* \"#utility.yul\":9320:9474   */\n      pop\n      pop\n      pop\n      jump\t// out\n        /* \"#utility.yul\":9480:9787   */\n    tag_215:\n        /* \"#utility.yul\":9548:9549   */\n      0x00\n        /* \"#utility.yul\":9558:9671   */\n    tag_277:\n        /* \"#utility.yul\":9572:9578   */\n      dup4\n        /* \"#utility.yul\":9569:9570   */\n      dup2\n        /* \"#utility.yul\":9566:9579   */\n      lt\n        /* \"#utility.yul\":9558:9671   */\n      iszero\n      tag_279\n      jumpi\n        /* \"#utility.yul\":9657:9658   */\n      dup1\n        /* \"#utility.yul\":9652:9655   */\n      dup3\n        /* \"#utility.yul\":9648:9659   */\n      add\n        /* \"#utility.yul\":9642:9660   */\n      mload\n        /* \"#utility.yul\":9638:9639   */\n      dup2\n        /* \"#utility.yul\":9633:9636   */\n      dup5\n        /* \"#utility.yul\":9629:9640   */\n      add\n        /* \"#utility.yul\":9622:9661   */\n      mstore\n        /* \"#utility.yul\":9594:9596   */\n      0x20\n        /* \"#utility.yul\":9591:9592   */\n      dup2\n        /* \"#utility.yul\":9587:9597   */\n      add\n        /* \"#utility.yul\":9582:9597   */\n      swap1\n      pop\n        /* \"#utility.yul\":9558:9671   */\n      jump(tag_277)\n    tag_279:\n        /* \"#utility.yul\":9689:9695   */\n      dup4\n        /* \"#utility.yul\":9686:9687   */\n      dup2\n        /* \"#utility.yul\":9683:9696   */\n      gt\n        /* \"#utility.yul\":9680:9781   */\n      iszero\n      tag_280\n      jumpi\n        /* \"#utility.yul\":9769:9770   */\n      0x00\n        /* \"#utility.yul\":9760:9766   */\n      dup5\n        /* \"#utility.yul\":9755:9758   */\n      dup5\n        /* \"#utility.yul\":9751:9767   */\n      add\n        /* \"#utility.yul\":9744:9771   */\n      mstore\n        /* \"#utility.yul\":9680:9781   */\n    tag_280:\n        /* \"#utility.yul\":9529:9787   */\n      pop\n        /* \"#utility.yul\":9480:9787   */\n      pop\n      pop\n      pop\n      jump\t// out\n        /* \"#utility.yul\":9793:9964   */\n    tag_128:\n        /* \"#utility.yul\":9832:9835   */\n      0x00\n        /* \"#utility.yul\":9855:9879   */\n      tag_282\n        /* \"#utility.yul\":9873:9878   */\n      dup3\n        /* \"#utility.yul\":9855:9879   */\n      tag_262\n      jump\t// in\n    tag_282:\n        /* \"#utility.yul\":9846:9879   */\n      swap2\n      pop\n        /* \"#utility.yul\":9901:9905   */\n      0x00\n        /* \"#utility.yul\":9894:9899   */\n      dup3\n        /* \"#utility.yul\":9891:9906   */\n      eq\n        /* \"#utility.yul\":9888:9929   */\n      iszero\n      tag_283\n      jumpi\n        /* \"#utility.yul\":9909:9927   */\n      tag_284\n      tag_266\n      jump\t// in\n    tag_284:\n        /* \"#utility.yul\":9888:9929   */\n    tag_283:\n        /* \"#utility.yul\":9956:9957   */\n      0x01\n        /* \"#utility.yul\":9949:9954   */\n      dup3\n        /* \"#utility.yul\":9945:9958   */\n      sub\n        /* \"#utility.yul\":9938:9958   */\n      swap1\n      pop\n        /* \"#utility.yul\":9793:9964   */\n      swap2\n      swap1\n      pop\n      jump\t// out\n        /* \"#utility.yul\":9970:10290   */\n    tag_66:\n        /* \"#utility.yul\":10014:10020   */\n      0x00\n        /* \"#utility.yul\":10051:10052   */\n      0x02\n        /* \"#utility.yul\":10045:10049   */\n      dup3\n        /* \"#utility.yul\":10041:10053   */\n      div\n        /* \"#utility.yul\":10031:10053   */\n      swap1\n      pop\n        /* \"#utility.yul\":10098:10099   */\n      0x01\n        /* \"#utility.yul\":10092:10096   */\n      dup3\n        /* \"#utility.yul\":10088:10100   */\n      and\n        /* \"#utility.yul\":10119:10137   */\n      dup1\n        /* \"#utility.yul\":10109:10190   */\n      tag_286\n      jumpi\n        /* \"#utility.yul\":10175:10179   */\n      0x7f\n        /* \"#utility.yul\":10167:10173   */\n      dup3\n        /* \"#utility.yul\":10163:10180   */\n      and\n        /* \"#utility.yul\":10153:10180   */\n      swap2\n      pop\n        /* \"#utility.yul\":10109:10190   */\n    tag_286:\n        /* \"#utility.yul\":10237:10239   */\n      0x20\n        /* \"#utility.yul\":10229:10235   */\n      dup3\n        /* \"#utility.yul\":10226:10240   */\n      lt\n        /* \"#utility.yul\":10206:10224   */\n      dup2\n        /* \"#utility.yul\":10203:10241   */\n      eq\n        /* \"#utility.yul\":10200:10284   */\n      iszero\n      tag_287\n      jumpi\n        /* \"#utility.yul\":10256:10274   */\n      tag_288\n      tag_289\n      jump\t// in\n    tag_288:\n        /* \"#utility.yul\":10200:10284   */\n    tag_287:\n        /* \"#utility.yul\":10021:10290   */\n      pop\n        /* \"#utility.yul\":9970:10290   */\n      swap2\n      swap1\n      pop\n      jump\t// out\n        /* \"#utility.yul\":10296:10577   */\n    tag_247:\n        /* \"#utility.yul\":10379:10406   */\n      tag_291\n        /* \"#utility.yul\":10401:10405   */\n      dup3\n        /* \"#utility.yul\":10379:10406   */\n      tag_217\n      jump\t// in\n    tag_291:\n        /* \"#utility.yul\":10371:10377   */\n      dup2\n        /* \"#utility.yul\":10367:10407   */\n      add\n        /* \"#utility.yul\":10509:10515   */\n      dup2\n        /* \"#utility.yul\":10497:10507   */\n      dup2\n        /* \"#utility.yul\":10494:10516   */\n      lt\n        /* \"#utility.yul\":10473:10491   */\n      0xffffffffffffffff\n        /* \"#utility.yul\":10461:10471   */\n      dup3\n        /* \"#utility.yul\":10458:10492   */\n      gt\n        /* \"#utility.yul\":10455:10517   */\n      or\n        /* \"#utility.yul\":10452:10540   */\n      iszero\n      tag_292\n      jumpi\n        /* \"#utility.yul\":10520:10538   */\n      tag_293\n      tag_54\n      jump\t// in\n    tag_293:\n        /* \"#utility.yul\":10452:10540   */\n    tag_292:\n        /* \"#utility.yul\":10560:10570   */\n      dup1\n        /* \"#utility.yul\":10556:10558   */\n      0x40\n        /* \"#utility.yul\":10549:10571   */\n      mstore\n        /* \"#utility.yul\":10339:10577   */\n      pop\n        /* \"#utility.yul\":10296:10577   */\n      pop\n      pop\n      jump\t// out\n        /* \"#utility.yul\":10583:10816   */\n    tag_82:\n        /* \"#utility.yul\":10622:10625   */\n      0x00\n        /* \"#utility.yul\":10645:10669   */\n      tag_295\n        /* \"#utility.yul\":10663:10668   */\n      dup3\n        /* \"#utility.yul\":10645:10669   */\n      tag_262\n      jump\t// in\n    tag_295:\n        /* \"#utility.yul\":10636:10669   */\n      swap2\n      pop\n        /* \"#utility.yul\":10691:10757   */\n      0xffffffffffffffffffffffffffffffffffffffffffffffffffffffffffffffff\n        /* \"#utility.yul\":10684:10689   */\n      dup3\n        /* \"#utility.yul\":10681:10758   */\n      eq\n        /* \"#utility.yul\":10678:10781   */\n      iszero\n      tag_296\n      jumpi\n        /* \"#utility.yul\":10761:10779   */\n      tag_297\n      tag_266\n      jump\t// in\n    tag_297:\n        /* \"#utility.yul\":10678:10781   */\n    tag_296:\n        /* \"#utility.yul\":10808:10809   */\n      0x01\n        /* \"#utility.yul\":10801:10806   */\n      dup3\n        /* \"#utility.yul\":10797:10810   */\n      add\n        /* \"#utility.yul\":10790:10810   */\n      swap1\n      pop\n        /* \"#utility.yul\":10583:10816   */\n      swap2\n      swap1\n      pop\n      jump\t// out\n        /* \"#utility.yul\":10822:11002   */\n    tag_266:\n        /* \"#utility.yul\":10870:10947   */\n      0x4e487b7100000000000000000000000000000000000000000000000000000000\n        /* \"#utility.yul\":10867:10868   */\n      0x00\n        /* \"#utility.yul\":10860:10948   */\n      mstore\n        /* \"#utility.yul\":10967:10971   */\n      0x11\n        /* \"#utility.yul\":10964:10965   */\n      0x04\n        /* \"#utility.yul\":10957:10972   */\n      mstore\n        /* \"#utility.yul\":10991:10995   */\n      0x24\n        /* \"#utility.yul\":10988:10989   */\n      0x00\n        /* \"#utility.yul\":10981:10996   */\n      revert\n        /* \"#utility.yul\":11008:11188   */\n    tag_289:\n        /* \"#utility.yul\":11056:11133   */\n      0x4e487b7100000000000000000000000000000000000000000000000000000000\n        /* \"#utility.yul\":11053:11054   */\n      0x00\n        /* \"#utility.yul\":11046:11134   */\n      mstore\n        /* \"#utility.yul\":11153:11157   */\n      0x22\n        /* \"#utility.yul\":11150:11151   */\n      0x04\n        /* \"#utility.yul\":11143:11158   */\n      mstore\n        /* \"#utility.yul\":11177:11181   */\n      0x24\n        /* \"#utility.yul\":11174:11175   */\n      0x00\n        /* \"#utility.yul\":11167:11182   */\n      revert\n        /* \"#utility.yul\":11194:11374   */\n    tag_63:\n        /* \"#utility.yul\":11242:11319   */\n      0x4e487b7100000000000000000000000000000000000000000000000000000000\n        /* \"#utility.yul\":11239:11240   */\n      0x00\n        /* \"#utility.yul\":11232:11320   */\n      mstore\n        /* \"#utility.yul\":11339:11343   */\n      0x32\n        /* \"#utility.yul\":11336:11337   */\n      0x04\n        /* \"#utility.yul\":11329:11344   */\n      mstore\n        /* \"#utility.yul\":11363:11367   */\n      0x24\n        /* \"#utility.yul\":11360:11361   */\n      0x00\n        /* \"#utility.yul\":11353:11368   */\n      revert\n        /* \"#utility.yul\":11380:11560   */\n    tag_54:\n        /* \"#utility.yul\":11428:11505   */\n      0x4e487b7100000000000000000000000000000000000000000000000000000000\n        /* \"#utility.yul\":11425:11426   */\n      0x00\n        /* \"#utility.yul\":11418:11506   */\n      mstore\n        /* \"#utility.yul\":11525:11529   */\n      0x41\n        /* \"#utility.yul\":11522:11523   */\n      0x04\n        /* \"#utility.yul\":11515:11530   */\n      mstore\n        /* \"#utility.yul\":11549:11553   */\n      0x24\n        /* \"#utility.yul\":11546:11547   */\n      0x00\n        /* \"#utility.yul\":11539:11554   */\n      revert\n        /* \"#utility.yul\":11566:11683   */\n    tag_168:\n        /* \"#utility.yul\":11675:11676   */\n      0x00\n        /* \"#utility.yul\":11672:11673   */\n      dup1\n        /* \"#utility.yul\":11665:11677   */\n      revert\n        /* \"#utility.yul\":11689:11806   */\n    tag_161:\n        /* \"#utility.yul\":11798:11799   */\n      0x00\n        /* \"#utility.yul\":11795:11796   */\n      dup1\n        /* \"#utility.yul\":11788:11800   */\n      revert\n        /* \"#utility.yul\":11812:11929   */\n    tag_180:\n        /* \"#utility.yul\":11921:11922   */\n      0x00\n        /* \"#utility.yul\":11918:11919   */\n      dup1\n        /* \"#utility.yul\":11911:11923   */\n      revert\n        /* \"#utility.yul\":11935:12052   */\n    tag_177:\n        /* \"#utility.yul\":12044:12045   */\n      0x00\n        /* \"#utility.yul\":12041:12042   */\n      dup1\n        /* \"#utility.yul\":12034:12046   */\n      revert\n        /* \"#utility.yul\":12058:12160   */\n    tag_217:\n        /* \"#utility.yul\":12099:12105   */\n      0x00\n        /* \"#utility.yul\":12150:12152   */\n      0x1f\n        /* \"#utility.yul\":12146:12153   */\n      not\n        /* \"#utility.yul\":12141:12143   */\n      0x1f\n        /* \"#utility.yul\":12134:12139   */\n      dup4\n        /* \"#utility.yul\":12130:12144   */\n      add\n        /* \"#utility.yul\":12126:12154   */\n      and\n        /* \"#utility.yul\":12116:12154   */\n      swap1\n      pop\n        /* \"#utility.yul\":12058:12160   */\n      swap2\n      swap1\n      pop\n      jump\t// out\n        /* \"#utility.yul\":12166:12288   */\n    tag_173:\n        /* \"#utility.yul\":12239:12263   */\n      tag_308\n        /* \"#utility.yul\":12257:12262   */\n      dup2\n        /* \"#utility.yul\":12239:12263   */\n      tag_262\n      jump\t// in\n    tag_308:\n        /* \"#utility.yul\":12232:12237   */\n      dup2\n        /* \"#utility.yul\":12229:12264   */\n      eq\n        /* \"#utility.yul\":12219:12282   */\n      tag_309\n      jumpi\n        /* \"#utility.yul\":12278:12279   */\n      0x00\n        /* \"#utility.yul\":12275:12276   */\n      dup1\n        /* \"#utility.yul\":12268:12280   */\n      revert\n        /* \"#utility.yul\":12219:12282   */\n    tag_309:\n        /* \"#utility.yul\":12166:12288   */\n      pop\n      jump\t// out\n\n    auxdata: 0xa2646970667358221220ff738613ec17612670bc7cd70350d24f4e0cd9d2ac3cfedbdfbd659f8d5ed65664736f6c63430008070033\n}\n",
				"bytecode": {
					"linkReferences": {},
					"object": "608060405234801561001057600080fd5b50611248806100206000396000f3fe608060405234801561001057600080fd5b50600436106100575760003560e01c80632da769551461005c57806372254ef81461007a5780637509d95d14610096578063d4b127ff146100c6578063f17fcb2f146100e2575b600080fd5b610064610112565b6040516100719190610e54565b60405180910390f35b610094600480360381019061008f9190610c16565b610123565b005b6100b060048036038101906100ab9190610c16565b610181565b6040516100bd9190610e76565b60405180910390f35b6100e060048036038101906100db9190610c16565b6101a4565b005b6100fc60048036038101906100f79190610c5f565b610202565b6040516101099190610e76565b60405180910390f35b606061011e6000610225565b905090565b60008061013a8360006104d990919063ffffffff16565b91509150801561017c577fdba8f119d1a15584e96e4b7347aaca727202e849378f6f178a37a24cc6244ad5826040516101739190610e76565b60405180910390a15b505050565b610189610ac1565b61019d8260006106b590919063ffffffff16565b9050919050565b6000806101bb8360006107d290919063ffffffff16565b9150915080156101fd577f27e8d524e71df3d22630ccf6e2b48aa67b9dbcc29e37e3e23175e8045b7d141c826040516101f49190610e76565b60405180910390a15b505050565b61020a610ac1565b61021e8260006109ba90919063ffffffff16565b9050919050565b6060600080836002015467ffffffffffffffff811115610248576102476111a7565b5b60405190808252806020026020018201604052801561028157816020015b61026e610ac1565b8152602001906001900390816102665790505b50905060005b84600301548110156104ce5760008560000182815481106102ab576102aa611178565b5b90600052602060002090600202016040518060400160405290816000820160009054906101000a900460ff161515151581526020016001820180546102ef9061106e565b80601f016020809104026020016040519081016040528092919081815260200182805461031b9061106e565b80156103685780601f1061033d57610100808354040283529160200191610368565b820191906000526020600020905b81548152906001019060200180831161034b57829003601f168201915b505050505081525050905080600001516104ba578560010181602001516040516103929190610e3d565b90815260200160405180910390206001016040518060600160405290816000820180546103be9061106e565b80601f01602080910402602001604051908101604052809291908181526020018280546103ea9061106e565b80156104375780601f1061040c57610100808354040283529160200191610437565b820191906000526020600020905b81548152906001019060200180831161041a57829003601f168201915b505050505081526020016001820160009054906101000a900467ffffffffffffffff1667ffffffffffffffff1667ffffffffffffffff1681526020016001820160089054906101000a900460ff1615151515815250508385815181106104a05761049f611178565b5b602002602001018190525083806104b6906110d1565b9450505b5080806104c6906110d1565b915050610287565b508092505050919050565b6104e1610ac1565b60008084600101846040516104f69190610e3d565b9081526020016040518091039020600001549050600081146105385761052c604051806020016040528060008152506000610a89565b600092509250506106ae565b6000610545856000610a89565b90508560000160018160018154018082558091505003906000526020600020905050848660000187600301548154811061058257610581611178565b5b906000526020600020906002020160010190805190602001906105a6929190610aee565b506040518060400160405280600188600301546105c39190610f4e565b81526020018281525086600101866040516105de9190610e3d565b908152602001604051809103902060008201518160000155602082015181600101600082015181600001908051906020019061061b929190610aee565b5060208201518160010160006101000a81548167ffffffffffffffff021916908367ffffffffffffffff16021790555060408201518160010160086101000a81548160ff0219169083151502179055505050905050856002016000815480929190610685906110d1565b919050555085600301600081548092919061069f906110d1565b91905055508060019350935050505b9250929050565b6106bd610ac1565b82600101826040516106cf9190610e3d565b90815260200160405180910390206001016040518060600160405290816000820180546106fb9061106e565b80601f01602080910402602001604051908101604052809291908181526020018280546107279061106e565b80156107745780601f1061074957610100808354040283529160200191610774565b820191906000526020600020905b81548152906001019060200180831161075757829003601f168201915b505050505081526020016001820160009054906101000a900467ffffffffffffffff1667ffffffffffffffff1667ffffffffffffffff1681526020016001820160089054906101000a900460ff161515151581525050905092915050565b6107da610ac1565b60008084600101846040516107ef9190610e3d565b9081526020016040518091039020600001549050600081141561083257610826604051806020016040528060008152506000610a89565b600092509250506109b3565b600085600101856040516108469190610e3d565b90815260200160405180910390206001016040518060600160405290816000820180546108729061106e565b80601f016020809104026020016040519081016040528092919081815260200182805461089e9061106e565b80156108eb5780601f106108c0576101008083540402835291602001916108eb565b820191906000526020600020905b8154815290600101906020018083116108ce57829003601f168201915b505050505081526020016001820160009054906101000a900467ffffffffffffffff1667ffffffffffffffff1667ffffffffffffffff1681526020016001820160089054906101000a900460ff16151515158152505090506001866000016001846109569190610fa4565b8154811061096757610966611178565b5b906000526020600020906002020160000160006101000a81548160ff0219169083151502179055508560020160008154809291906109a490611044565b91905055508060019350935050505b9250929050565b6109c2610ac1565b60008360000183815481106109da576109d9611178565b5b906000526020600020906002020160010180546109f69061106e565b80601f0160208091040260200160405190810160405280929190818152602001828054610a229061106e565b8015610a6f5780601f10610a4457610100808354040283529160200191610a6f565b820191906000526020600020905b815481529060010190602001808311610a5257829003601f168201915b50505050509050610a8084826106b5565b91505092915050565b610a91610ac1565b60405180606001604052808481526020018367ffffffffffffffff16815260200160001515815250905092915050565b604051806060016040528060608152602001600067ffffffffffffffff1681526020016000151581525090565b828054610afa9061106e565b90600052602060002090601f016020900481019282610b1c5760008555610b63565b82601f10610b3557805160ff1916838001178555610b63565b82800160010185558215610b63579182015b82811115610b62578251825591602001919060010190610b47565b5b509050610b709190610b74565b5090565b5b80821115610b8d576000816000905550600101610b75565b5090565b6000610ba4610b9f84610ebd565b610e98565b905082815260208101848484011115610bc057610bbf6111db565b5b610bcb848285611002565b509392505050565b600082601f830112610be857610be76111d6565b5b8135610bf8848260208601610b91565b91505092915050565b600081359050610c10816111fb565b92915050565b600060208284031215610c2c57610c2b6111e5565b5b600082013567ffffffffffffffff811115610c4a57610c496111e0565b5b610c5684828501610bd3565b91505092915050565b600060208284031215610c7557610c746111e5565b5b6000610c8384828501610c01565b91505092915050565b6000610c988383610d8e565b905092915050565b6000610cab82610efe565b610cb58185610f21565b935083602082028501610cc785610eee565b8060005b85811015610d035784840389528151610ce48582610c8c565b9450610cef83610f14565b925060208a01995050600181019050610ccb565b50829750879550505050505092915050565b610d1e81610fd8565b82525050565b6000610d2f82610f09565b610d398185610f32565b9350610d49818560208601611011565b610d52816111ea565b840191505092915050565b6000610d6882610f09565b610d728185610f43565b9350610d82818560208601611011565b80840191505092915050565b60006060830160008301518482036000860152610dab8282610d24565b9150506020830151610dc06020860182610e2e565b506040830151610dd36040860182610d15565b508091505092915050565b60006060830160008301518482036000860152610dfb8282610d24565b9150506020830151610e106020860182610e2e565b506040830151610e236040860182610d15565b508091505092915050565b610e3781610fee565b82525050565b6000610e498284610d5d565b915081905092915050565b60006020820190508181036000830152610e6e8184610ca0565b905092915050565b60006020820190508181036000830152610e908184610dde565b905092915050565b6000610ea2610eb3565b9050610eae82826110a0565b919050565b6000604051905090565b600067ffffffffffffffff821115610ed857610ed76111a7565b5b610ee1826111ea565b9050602081019050919050565b6000819050602082019050919050565b600081519050919050565b600081519050919050565b6000602082019050919050565b600082825260208201905092915050565b600082825260208201905092915050565b600081905092915050565b6000610f5982610fe4565b9150610f6483610fe4565b9250827fffffffffffffffffffffffffffffffffffffffffffffffffffffffffffffffff03821115610f9957610f9861111a565b5b828201905092915050565b6000610faf82610fe4565b9150610fba83610fe4565b925082821015610fcd57610fcc61111a565b5b828203905092915050565b60008115159050919050565b6000819050919050565b600067ffffffffffffffff82169050919050565b82818337600083830152505050565b60005b8381101561102f578082015181840152602081019050611014565b8381111561103e576000848401525b50505050565b600061104f82610fe4565b915060008214156110635761106261111a565b5b600182039050919050565b6000600282049050600182168061108657607f821691505b6020821081141561109a57611099611149565b5b50919050565b6110a9826111ea565b810181811067ffffffffffffffff821117156110c8576110c76111a7565b5b80604052505050565b60006110dc82610fe4565b91507fffffffffffffffffffffffffffffffffffffffffffffffffffffffffffffffff82141561110f5761110e61111a565b5b600182019050919050565b7f4e487b7100000000000000000000000000000000000000000000000000000000600052601160045260246000fd5b7f4e487b7100000000000000000000000000000000000000000000000000000000600052602260045260246000fd5b7f4e487b7100000000000000000000000000000000000000000000000000000000600052603260045260246000fd5b7f4e487b7100000000000000000000000000000000000000000000000000000000600052604160045260246000fd5b600080fd5b600080fd5b600080fd5b600080fd5b6000601f19601f8301169050919050565b61120481610fe4565b811461120f57600080fd5b5056fea2646970667358221220ff738613ec17612670bc7cd70350d24f4e0cd9d2ac3cfedbdfbd659f8d5ed65664736f6c63430008070033",
					"opcodes": "PUSH1 0x80 PUSH1 0x40 MSTORE CALLVALUE DUP1 ISZERO PUSH2 0x10 JUMPI PUSH1 0x0 DUP1 REVERT JUMPDEST POP PUSH2 0x1248 DUP1 PUSH2 0x20 PUSH1 0x0 CODECOPY PUSH1 0x0 RETURN INVALID PUSH1 0x80 PUSH1 0x40 MSTORE CALLVALUE DUP1 ISZERO PUSH2 0x10 JUMPI PUSH1 0x0 DUP1 REVERT JUMPDEST POP PUSH1 0x4 CALLDATASIZE LT PUSH2 0x57 JUMPI PUSH1 0x0 CALLDATALOAD PUSH1 0xE0 SHR DUP1 PUSH4 0x2DA76955 EQ PUSH2 0x5C JUMPI DUP1 PUSH4 0x72254EF8 EQ PUSH2 0x7A JUMPI DUP1 PUSH4 0x7509D95D EQ PUSH2 0x96 JUMPI DUP1 PUSH4 0xD4B127FF EQ PUSH2 0xC6 JUMPI DUP1 PUSH4 0xF17FCB2F EQ PUSH2 0xE2 JUMPI JUMPDEST PUSH1 0x0 DUP1 REVERT JUMPDEST PUSH2 0x64 PUSH2 0x112 JUMP JUMPDEST PUSH1 0x40 MLOAD PUSH2 0x71 SWAP2 SWAP1 PUSH2 0xE54 JUMP JUMPDEST PUSH1 0x40 MLOAD DUP1 SWAP2 SUB SWAP1 RETURN JUMPDEST PUSH2 0x94 PUSH1 0x4 DUP1 CALLDATASIZE SUB DUP2 ADD SWAP1 PUSH2 0x8F SWAP2 SWAP1 PUSH2 0xC16 JUMP JUMPDEST PUSH2 0x123 JUMP JUMPDEST STOP JUMPDEST PUSH2 0xB0 PUSH1 0x4 DUP1 CALLDATASIZE SUB DUP2 ADD SWAP1 PUSH2 0xAB SWAP2 SWAP1 PUSH2 0xC16 JUMP JUMPDEST PUSH2 0x181 JUMP JUMPDEST PUSH1 0x40 MLOAD PUSH2 0xBD SWAP2 SWAP1 PUSH2 0xE76 JUMP JUMPDEST PUSH1 0x40 MLOAD DUP1 SWAP2 SUB SWAP1 RETURN JUMPDEST PUSH2 0xE0 PUSH1 0x4 DUP1 CALLDATASIZE SUB DUP2 ADD SWAP1 PUSH2 0xDB SWAP2 SWAP1 PUSH2 0xC16 JUMP JUMPDEST PUSH2 0x1A4 JUMP JUMPDEST STOP JUMPDEST PUSH2 0xFC PUSH1 0x4 DUP1 CALLDATASIZE SUB DUP2 ADD SWAP1 PUSH2 0xF7 SWAP2 SWAP1 PUSH2 0xC5F JUMP JUMPDEST PUSH2 0x202 JUMP JUMPDEST PUSH1 0x40 MLOAD PUSH2 0x109 SWAP2 SWAP1 PUSH2 0xE76 JUMP JUMPDEST PUSH1 0x40 MLOAD DUP1 SWAP2 SUB SWAP1 RETURN JUMPDEST PUSH1 0x60 PUSH2 0x11E PUSH1 0x0 PUSH2 0x225 JUMP JUMPDEST SWAP1 POP SWAP1 JUMP JUMPDEST PUSH1 0x0 DUP1 PUSH2 0x13A DUP4 PUSH1 0x0 PUSH2 0x4D9 SWAP1 SWAP2 SWAP1 PUSH4 0xFFFFFFFF AND JUMP JUMPDEST SWAP2 POP SWAP2 POP DUP1 ISZERO PUSH2 0x17C JUMPI PUSH32 0xDBA8F119D1A15584E96E4B7347AACA727202E849378F6F178A37A24CC6244AD5 DUP3 PUSH1 0x40 MLOAD PUSH2 0x173 SWAP2 SWAP1 PUSH2 0xE76 JUMP JUMPDEST PUSH1 0x40 MLOAD DUP1 SWAP2 SUB SWAP1 LOG1 JUMPDEST POP POP POP JUMP JUMPDEST PUSH2 0x189 PUSH2 0xAC1 JUMP JUMPDEST PUSH2 0x19D DUP3 PUSH1 0x0 PUSH2 0x6B5 SWAP1 SWAP2 SWAP1 PUSH4 0xFFFFFFFF AND JUMP JUMPDEST SWAP1 POP SWAP2 SWAP1 POP JUMP JUMPDEST PUSH1 0x0 DUP1 PUSH2 0x1BB DUP4 PUSH1 0x0 PUSH2 0x7D2 SWAP1 SWAP2 SWAP1 PUSH4 0xFFFFFFFF AND JUMP JUMPDEST SWAP2 POP SWAP2 POP DUP1 ISZERO PUSH2 0x1FD JUMPI PUSH32 0x27E8D524E71DF3D22630CCF6E2B48AA67B9DBCC29E37E3E23175E8045B7D141C DUP3 PUSH1 0x40 MLOAD PUSH2 0x1F4 SWAP2 SWAP1 PUSH2 0xE76 JUMP JUMPDEST PUSH1 0x40 MLOAD DUP1 SWAP2 SUB SWAP1 LOG1 JUMPDEST POP POP POP JUMP JUMPDEST PUSH2 0x20A PUSH2 0xAC1 JUMP JUMPDEST PUSH2 0x21E DUP3 PUSH1 0x0 PUSH2 0x9BA SWAP1 SWAP2 SWAP1 PUSH4 0xFFFFFFFF AND JUMP JUMPDEST SWAP1 POP SWAP2 SWAP1 POP JUMP JUMPDEST PUSH1 0x60 PUSH1 0x0 DUP1 DUP4 PUSH1 0x2 ADD SLOAD PUSH8 0xFFFFFFFFFFFFFFFF DUP2 GT ISZERO PUSH2 0x248 JUMPI PUSH2 0x247 PUSH2 0x11A7 JUMP JUMPDEST JUMPDEST PUSH1 0x40 MLOAD SWAP1 DUP1 DUP3 MSTORE DUP1 PUSH1 0x20 MUL PUSH1 0x20 ADD DUP3 ADD PUSH1 0x40 MSTORE DUP1 ISZERO PUSH2 0x281 JUMPI DUP2 PUSH1 0x20 ADD JUMPDEST PUSH2 0x26E PUSH2 0xAC1 JUMP JUMPDEST DUP2 MSTORE PUSH1 0x20 ADD SWAP1 PUSH1 0x1 SWAP1 SUB SWAP1 DUP2 PUSH2 0x266 JUMPI SWAP1 POP JUMPDEST POP SWAP1 POP PUSH1 0x0 JUMPDEST DUP5 PUSH1 0x3 ADD SLOAD DUP2 LT ISZERO PUSH2 0x4CE JUMPI PUSH1 0x0 DUP6 PUSH1 0x0 ADD DUP3 DUP2 SLOAD DUP2 LT PUSH2 0x2AB JUMPI PUSH2 0x2AA PUSH2 0x1178 JUMP JUMPDEST JUMPDEST SWAP1 PUSH1 0x0 MSTORE PUSH1 0x20 PUSH1 0x0 KECCAK256 SWAP1 PUSH1 0x2 MUL ADD PUSH1 0x40 MLOAD DUP1 PUSH1 0x40 ADD PUSH1 0x40 MSTORE SWAP1 DUP2 PUSH1 0x0 DUP3 ADD PUSH1 0x0 SWAP1 SLOAD SWAP1 PUSH2 0x100 EXP SWAP1 DIV PUSH1 0xFF AND ISZERO ISZERO ISZERO ISZERO DUP2 MSTORE PUSH1 0x20 ADD PUSH1 0x1 DUP3 ADD DUP1 SLOAD PUSH2 0x2EF SWAP1 PUSH2 0x106E JUMP JUMPDEST DUP1 PUSH1 0x1F ADD PUSH1 0x20 DUP1 SWAP2 DIV MUL PUSH1 0x20 ADD PUSH1 0x40 MLOAD SWAP1 DUP2 ADD PUSH1 0x40 MSTORE DUP1 SWAP3 SWAP2 SWAP1 DUP2 DUP2 MSTORE PUSH1 0x20 ADD DUP3 DUP1 SLOAD PUSH2 0x31B SWAP1 PUSH2 0x106E JUMP JUMPDEST DUP1 ISZERO PUSH2 0x368 JUMPI DUP1 PUSH1 0x1F LT PUSH2 0x33D JUMPI PUSH2 0x100 DUP1 DUP4 SLOAD DIV MUL DUP4 MSTORE SWAP2 PUSH1 0x20 ADD SWAP2 PUSH2 0x368 JUMP JUMPDEST DUP3 ADD SWAP2 SWAP1 PUSH1 0x0 MSTORE PUSH1 0x20 PUSH1 0x0 KECCAK256 SWAP1 JUMPDEST DUP2 SLOAD DUP2 MSTORE SWAP1 PUSH1 0x1 ADD SWAP1 PUSH1 0x20 ADD DUP1 DUP4 GT PUSH2 0x34B JUMPI DUP3 SWAP1 SUB PUSH1 0x1F AND DUP3 ADD SWAP2 JUMPDEST POP POP POP POP POP DUP2 MSTORE POP POP SWAP1 POP DUP1 PUSH1 0x0 ADD MLOAD PUSH2 0x4BA JUMPI DUP6 PUSH1 0x1 ADD DUP2 PUSH1 0x20 ADD MLOAD PUSH1 0x40 MLOAD PUSH2 0x392 SWAP2 SWAP1 PUSH2 0xE3D JUMP JUMPDEST SWAP1 DUP2 MSTORE PUSH1 0x20 ADD PUSH1 0x40 MLOAD DUP1 SWAP2 SUB SWAP1 KECCAK256 PUSH1 0x1 ADD PUSH1 0x40 MLOAD DUP1 PUSH1 0x60 ADD PUSH1 0x40 MSTORE SWAP1 DUP2 PUSH1 0x0 DUP3 ADD DUP1 SLOAD PUSH2 0x3BE SWAP1 PUSH2 0x106E JUMP JUMPDEST DUP1 PUSH1 0x1F ADD PUSH1 0x20 DUP1 SWAP2 DIV MUL PUSH1 0x20 ADD PUSH1 0x40 MLOAD SWAP1 DUP2 ADD PUSH1 0x40 MSTORE DUP1 SWAP3 SWAP2 SWAP1 DUP2 DUP2 MSTORE PUSH1 0x20 ADD DUP3 DUP1 SLOAD PUSH2 0x3EA SWAP1 PUSH2 0x106E JUMP JUMPDEST DUP1 ISZERO PUSH2 0x437 JUMPI DUP1 PUSH1 0x1F LT PUSH2 0x40C JUMPI PUSH2 0x100 DUP1 DUP4 SLOAD DIV MUL DUP4 MSTORE SWAP2 PUSH1 0x20 ADD SWAP2 PUSH2 0x437 JUMP JUMPDEST DUP3 ADD SWAP2 SWAP1 PUSH1 0x0 MSTORE PUSH1 0x20 PUSH1 0x0 KECCAK256 SWAP1 JUMPDEST DUP2 SLOAD DUP2 MSTORE SWAP1 PUSH1 0x1 ADD SWAP1 PUSH1 0x20 ADD DUP1 DUP4 GT PUSH2 0x41A JUMPI DUP3 SWAP1 SUB PUSH1 0x1F AND DUP3 ADD SWAP2 JUMPDEST POP POP POP POP POP DUP2 MSTORE PUSH1 0x20 ADD PUSH1 0x1 DUP3 ADD PUSH1 0x0 SWAP1 SLOAD SWAP1 PUSH2 0x100 EXP SWAP1 DIV PUSH8 0xFFFFFFFFFFFFFFFF AND PUSH8 0xFFFFFFFFFFFFFFFF AND PUSH8 0xFFFFFFFFFFFFFFFF AND DUP2 MSTORE PUSH1 0x20 ADD PUSH1 0x1 DUP3 ADD PUSH1 0x8 SWAP1 SLOAD SWAP1 PUSH2 0x100 EXP SWAP1 DIV PUSH1 0xFF AND ISZERO ISZERO ISZERO ISZERO DUP2 MSTORE POP POP DUP4 DUP6 DUP2 MLOAD DUP2 LT PUSH2 0x4A0 JUMPI PUSH2 0x49F PUSH2 0x1178 JUMP JUMPDEST JUMPDEST PUSH1 0x20 MUL PUSH1 0x20 ADD ADD DUP2 SWAP1 MSTORE POP DUP4 DUP1 PUSH2 0x4B6 SWAP1 PUSH2 0x10D1 JUMP JUMPDEST SWAP5 POP POP JUMPDEST POP DUP1 DUP1 PUSH2 0x4C6 SWAP1 PUSH2 0x10D1 JUMP JUMPDEST SWAP2 POP POP PUSH2 0x287 JUMP JUMPDEST POP DUP1 SWAP3 POP POP POP SWAP2 SWAP1 POP JUMP JUMPDEST PUSH2 0x4E1 PUSH2 0xAC1 JUMP JUMPDEST PUSH1 0x0 DUP1 DUP5 PUSH1 0x1 ADD DUP5 PUSH1 0x40 MLOAD PUSH2 0x4F6 SWAP2 SWAP1 PUSH2 0xE3D JUMP JUMPDEST SWAP1 DUP2 MSTORE PUSH1 0x20 ADD PUSH1 0x40 MLOAD DUP1 SWAP2 SUB SWAP1 KECCAK256 PUSH1 0x0 ADD SLOAD SWAP1 POP PUSH1 0x0 DUP2 EQ PUSH2 0x538 JUMPI PUSH2 0x52C PUSH1 0x40 MLOAD DUP1 PUSH1 0x20 ADD PUSH1 0x40 MSTORE DUP1 PUSH1 0x0 DUP2 MSTORE POP PUSH1 0x0 PUSH2 0xA89 JUMP JUMPDEST PUSH1 0x0 SWAP3 POP SWAP3 POP POP PUSH2 0x6AE JUMP JUMPDEST PUSH1 0x0 PUSH2 0x545 DUP6 PUSH1 0x0 PUSH2 0xA89 JUMP JUMPDEST SWAP1 POP DUP6 PUSH1 0x0 ADD PUSH1 0x1 DUP2 PUSH1 0x1 DUP2 SLOAD ADD DUP1 DUP3 SSTORE DUP1 SWAP2 POP POP SUB SWAP1 PUSH1 0x0 MSTORE PUSH1 0x20 PUSH1 0x0 KECCAK256 SWAP1 POP POP DUP5 DUP7 PUSH1 0x0 ADD DUP8 PUSH1 0x3 ADD SLOAD DUP2 SLOAD DUP2 LT PUSH2 0x582 JUMPI PUSH2 0x581 PUSH2 0x1178 JUMP JUMPDEST JUMPDEST SWAP1 PUSH1 0x0 MSTORE PUSH1 0x20 PUSH1 0x0 KECCAK256 SWAP1 PUSH1 0x2 MUL ADD PUSH1 0x1 ADD SWAP1 DUP1 MLOAD SWAP1 PUSH1 0x20 ADD SWAP1 PUSH2 0x5A6 SWAP3 SWAP2 SWAP1 PUSH2 0xAEE JUMP JUMPDEST POP PUSH1 0x40 MLOAD DUP1 PUSH1 0x40 ADD PUSH1 0x40 MSTORE DUP1 PUSH1 0x1 DUP9 PUSH1 0x3 ADD SLOAD PUSH2 0x5C3 SWAP2 SWAP1 PUSH2 0xF4E JUMP JUMPDEST DUP2 MSTORE PUSH1 0x20 ADD DUP3 DUP2 MSTORE POP DUP7 PUSH1 0x1 ADD DUP7 PUSH1 0x40 MLOAD PUSH2 0x5DE SWAP2 SWAP1 PUSH2 0xE3D JUMP JUMPDEST SWAP1 DUP2 MSTORE PUSH1 0x20 ADD PUSH1 0x40 MLOAD DUP1 SWAP2 SUB SWAP1 KECCAK256 PUSH1 0x0 DUP3 ADD MLOAD DUP2 PUSH1 0x0 ADD SSTORE PUSH1 0x20 DUP3 ADD MLOAD DUP2 PUSH1 0x1 ADD PUSH1 0x0 DUP3 ADD MLOAD DUP2 PUSH1 0x0 ADD SWAP1 DUP1 MLOAD SWAP1 PUSH1 0x20 ADD SWAP1 PUSH2 0x61B SWAP3 SWAP2 SWAP1 PUSH2 0xAEE JUMP JUMPDEST POP PUSH1 0x20 DUP3 ADD MLOAD DUP2 PUSH1 0x1 ADD PUSH1 0x0 PUSH2 0x100 EXP DUP2 SLOAD DUP2 PUSH8 0xFFFFFFFFFFFFFFFF MUL NOT AND SWAP1 DUP4 PUSH8 0xFFFFFFFFFFFFFFFF AND MUL OR SWAP1 SSTORE POP PUSH1 0x40 DUP3 ADD MLOAD DUP2 PUSH1 0x1 ADD PUSH1 0x8 PUSH2 0x100 EXP DUP2 SLOAD DUP2 PUSH1 0xFF MUL NOT AND SWAP1 DUP4 ISZERO ISZERO MUL OR SWAP1 SSTORE POP POP POP SWAP1 POP POP DUP6 PUSH1 0x2 ADD PUSH1 0x0 DUP2 SLOAD DUP1 SWAP3 SWAP2 SWAP1 PUSH2 0x685 SWAP1 PUSH2 0x10D1 JUMP JUMPDEST SWAP2 SWAP1 POP SSTORE POP DUP6 PUSH1 0x3 ADD PUSH1 0x0 DUP2 SLOAD DUP1 SWAP3 SWAP2 SWAP1 PUSH2 0x69F SWAP1 PUSH2 0x10D1 JUMP JUMPDEST SWAP2 SWAP1 POP SSTORE POP DUP1 PUSH1 0x1 SWAP4 POP SWAP4 POP POP POP JUMPDEST SWAP3 POP SWAP3 SWAP1 POP JUMP JUMPDEST PUSH2 0x6BD PUSH2 0xAC1 JUMP JUMPDEST DUP3 PUSH1 0x1 ADD DUP3 PUSH1 0x40 MLOAD PUSH2 0x6CF SWAP2 SWAP1 PUSH2 0xE3D JUMP JUMPDEST SWAP1 DUP2 MSTORE PUSH1 0x20 ADD PUSH1 0x40 MLOAD DUP1 SWAP2 SUB SWAP1 KECCAK256 PUSH1 0x1 ADD PUSH1 0x40 MLOAD DUP1 PUSH1 0x60 ADD PUSH1 0x40 MSTORE SWAP1 DUP2 PUSH1 0x0 DUP3 ADD DUP1 SLOAD PUSH2 0x6FB SWAP1 PUSH2 0x106E JUMP JUMPDEST DUP1 PUSH1 0x1F ADD PUSH1 0x20 DUP1 SWAP2 DIV MUL PUSH1 0x20 ADD PUSH1 0x40 MLOAD SWAP1 DUP2 ADD PUSH1 0x40 MSTORE DUP1 SWAP3 SWAP2 SWAP1 DUP2 DUP2 MSTORE PUSH1 0x20 ADD DUP3 DUP1 SLOAD PUSH2 0x727 SWAP1 PUSH2 0x106E JUMP JUMPDEST DUP1 ISZERO PUSH2 0x774 JUMPI DUP1 PUSH1 0x1F LT PUSH2 0x749 JUMPI PUSH2 0x100 DUP1 DUP4 SLOAD DIV MUL DUP4 MSTORE SWAP2 PUSH1 0x20 ADD SWAP2 PUSH2 0x774 JUMP JUMPDEST DUP3 ADD SWAP2 SWAP1 PUSH1 0x0 MSTORE PUSH1 0x20 PUSH1 0x0 KECCAK256 SWAP1 JUMPDEST DUP2 SLOAD DUP2 MSTORE SWAP1 PUSH1 0x1 ADD SWAP1 PUSH1 0x20 ADD DUP1 DUP4 GT PUSH2 0x757 JUMPI DUP3 SWAP1 SUB PUSH1 0x1F AND DUP3 ADD SWAP2 JUMPDEST POP POP POP POP POP DUP2 MSTORE PUSH1 0x20 ADD PUSH1 0x1 DUP3 ADD PUSH1 0x0 SWAP1 SLOAD SWAP1 PUSH2 0x100 EXP SWAP1 DIV PUSH8 0xFFFFFFFFFFFFFFFF AND PUSH8 0xFFFFFFFFFFFFFFFF AND PUSH8 0xFFFFFFFFFFFFFFFF AND DUP2 MSTORE PUSH1 0x20 ADD PUSH1 0x1 DUP3 ADD PUSH1 0x8 SWAP1 SLOAD SWAP1 PUSH2 0x100 EXP SWAP1 DIV PUSH1 0xFF AND ISZERO ISZERO ISZERO ISZERO DUP2 MSTORE POP POP SWAP1 POP SWAP3 SWAP2 POP POP JUMP JUMPDEST PUSH2 0x7DA PUSH2 0xAC1 JUMP JUMPDEST PUSH1 0x0 DUP1 DUP5 PUSH1 0x1 ADD DUP5 PUSH1 0x40 MLOAD PUSH2 0x7EF SWAP2 SWAP1 PUSH2 0xE3D JUMP JUMPDEST SWAP1 DUP2 MSTORE PUSH1 0x20 ADD PUSH1 0x40 MLOAD DUP1 SWAP2 SUB SWAP1 KECCAK256 PUSH1 0x0 ADD SLOAD SWAP1 POP PUSH1 0x0 DUP2 EQ ISZERO PUSH2 0x832 JUMPI PUSH2 0x826 PUSH1 0x40 MLOAD DUP1 PUSH1 0x20 ADD PUSH1 0x40 MSTORE DUP1 PUSH1 0x0 DUP2 MSTORE POP PUSH1 0x0 PUSH2 0xA89 JUMP JUMPDEST PUSH1 0x0 SWAP3 POP SWAP3 POP POP PUSH2 0x9B3 JUMP JUMPDEST PUSH1 0x0 DUP6 PUSH1 0x1 ADD DUP6 PUSH1 0x40 MLOAD PUSH2 0x846 SWAP2 SWAP1 PUSH2 0xE3D JUMP JUMPDEST SWAP1 DUP2 MSTORE PUSH1 0x20 ADD PUSH1 0x40 MLOAD DUP1 SWAP2 SUB SWAP1 KECCAK256 PUSH1 0x1 ADD PUSH1 0x40 MLOAD DUP1 PUSH1 0x60 ADD PUSH1 0x40 MSTORE SWAP1 DUP2 PUSH1 0x0 DUP3 ADD DUP1 SLOAD PUSH2 0x872 SWAP1 PUSH2 0x106E JUMP JUMPDEST DUP1 PUSH1 0x1F ADD PUSH1 0x20 DUP1 SWAP2 DIV MUL PUSH1 0x20 ADD PUSH1 0x40 MLOAD SWAP1 DUP2 ADD PUSH1 0x40 MSTORE DUP1 SWAP3 SWAP2 SWAP1 DUP2 DUP2 MSTORE PUSH1 0x20 ADD DUP3 DUP1 SLOAD PUSH2 0x89E SWAP1 PUSH2 0x106E JUMP JUMPDEST DUP1 ISZERO PUSH2 0x8EB JUMPI DUP1 PUSH1 0x1F LT PUSH2 0x8C0 JUMPI PUSH2 0x100 DUP1 DUP4 SLOAD DIV MUL DUP4 MSTORE SWAP2 PUSH1 0x20 ADD SWAP2 PUSH2 0x8EB JUMP JUMPDEST DUP3 ADD SWAP2 SWAP1 PUSH1 0x0 MSTORE PUSH1 0x20 PUSH1 0x0 KECCAK256 SWAP1 JUMPDEST DUP2 SLOAD DUP2 MSTORE SWAP1 PUSH1 0x1 ADD SWAP1 PUSH1 0x20 ADD DUP1 DUP4 GT PUSH2 0x8CE JUMPI DUP3 SWAP1 SUB PUSH1 0x1F AND DUP3 ADD SWAP2 JUMPDEST POP POP POP POP POP DUP2 MSTORE PUSH1 0x20 ADD PUSH1 0x1 DUP3 ADD PUSH1 0x0 SWAP1 SLOAD SWAP1 PUSH2 0x100 EXP SWAP1 DIV PUSH8 0xFFFFFFFFFFFFFFFF AND PUSH8 0xFFFFFFFFFFFFFFFF AND PUSH8 0xFFFFFFFFFFFFFFFF AND DUP2 MSTORE PUSH1 0x20 ADD PUSH1 0x1 DUP3 ADD PUSH1 0x8 SWAP1 SLOAD SWAP1 PUSH2 0x100 EXP SWAP1 DIV PUSH1 0xFF AND ISZERO ISZERO ISZERO ISZERO DUP2 MSTORE POP POP SWAP1 POP PUSH1 0x1 DUP7 PUSH1 0x0 ADD PUSH1 0x1 DUP5 PUSH2 0x956 SWAP2 SWAP1 PUSH2 0xFA4 JUMP JUMPDEST DUP2 SLOAD DUP2 LT PUSH2 0x967 JUMPI PUSH2 0x966 PUSH2 0x1178 JUMP JUMPDEST JUMPDEST SWAP1 PUSH1 0x0 MSTORE PUSH1 0x20 PUSH1 0x0 KECCAK256 SWAP1 PUSH1 0x2 MUL ADD PUSH1 0x0 ADD PUSH1 0x0 PUSH2 0x100 EXP DUP2 SLOAD DUP2 PUSH1 0xFF MUL NOT AND SWAP1 DUP4 ISZERO ISZERO MUL OR SWAP1 SSTORE POP DUP6 PUSH1 0x2 ADD PUSH1 0x0 DUP2 SLOAD DUP1 SWAP3 SWAP2 SWAP1 PUSH2 0x9A4 SWAP1 PUSH2 0x1044 JUMP JUMPDEST SWAP2 SWAP1 POP SSTORE POP DUP1 PUSH1 0x1 SWAP4 POP SWAP4 POP POP POP JUMPDEST SWAP3 POP SWAP3 SWAP1 POP JUMP JUMPDEST PUSH2 0x9C2 PUSH2 0xAC1 JUMP JUMPDEST PUSH1 0x0 DUP4 PUSH1 0x0 ADD DUP4 DUP2 SLOAD DUP2 LT PUSH2 0x9DA JUMPI PUSH2 0x9D9 PUSH2 0x1178 JUMP JUMPDEST JUMPDEST SWAP1 PUSH1 0x0 MSTORE PUSH1 0x20 PUSH1 0x0 KECCAK256 SWAP1 PUSH1 0x2 MUL ADD PUSH1 0x1 ADD DUP1 SLOAD PUSH2 0x9F6 SWAP1 PUSH2 0x106E JUMP JUMPDEST DUP1 PUSH1 0x1F ADD PUSH1 0x20 DUP1 SWAP2 DIV MUL PUSH1 0x20 ADD PUSH1 0x40 MLOAD SWAP1 DUP2 ADD PUSH1 0x40 MSTORE DUP1 SWAP3 SWAP2 SWAP1 DUP2 DUP2 MSTORE PUSH1 0x20 ADD DUP3 DUP1 SLOAD PUSH2 0xA22 SWAP1 PUSH2 0x106E JUMP JUMPDEST DUP1 ISZERO PUSH2 0xA6F JUMPI DUP1 PUSH1 0x1F LT PUSH2 0xA44 JUMPI PUSH2 0x100 DUP1 DUP4 SLOAD DIV MUL DUP4 MSTORE SWAP2 PUSH1 0x20 ADD SWAP2 PUSH2 0xA6F JUMP JUMPDEST DUP3 ADD SWAP2 SWAP1 PUSH1 0x0 MSTORE PUSH1 0x20 PUSH1 0x0 KECCAK256 SWAP1 JUMPDEST DUP2 SLOAD DUP2 MSTORE SWAP1 PUSH1 0x1 ADD SWAP1 PUSH1 0x20 ADD DUP1 DUP4 GT PUSH2 0xA52 JUMPI DUP3 SWAP1 SUB PUSH1 0x1F AND DUP3 ADD SWAP2 JUMPDEST POP POP POP POP POP SWAP1 POP PUSH2 0xA80 DUP5 DUP3 PUSH2 0x6B5 JUMP JUMPDEST SWAP2 POP POP SWAP3 SWAP2 POP POP JUMP JUMPDEST PUSH2 0xA91 PUSH2 0xAC1 JUMP JUMPDEST PUSH1 0x40 MLOAD DUP1 PUSH1 0x60 ADD PUSH1 0x40 MSTORE DUP1 DUP5 DUP2 MSTORE PUSH1 0x20 ADD DUP4 PUSH8 0xFFFFFFFFFFFFFFFF AND DUP2 MSTORE PUSH1 0x20 ADD PUSH1 0x0 ISZERO ISZERO DUP2 MSTORE POP SWAP1 POP SWAP3 SWAP2 POP POP JUMP JUMPDEST PUSH1 0x40 MLOAD DUP1 PUSH1 0x60 ADD PUSH1 0x40 MSTORE DUP1 PUSH1 0x60 DUP2 MSTORE PUSH1 0x20 ADD PUSH1 0x0 PUSH8 0xFFFFFFFFFFFFFFFF AND DUP2 MSTORE PUSH1 0x20 ADD PUSH1 0x0 ISZERO ISZERO DUP2 MSTORE POP SWAP1 JUMP JUMPDEST DUP3 DUP1 SLOAD PUSH2 0xAFA SWAP1 PUSH2 0x106E JUMP JUMPDEST SWAP1 PUSH1 0x0 MSTORE PUSH1 0x20 PUSH1 0x0 KECCAK256 SWAP1 PUSH1 0x1F ADD PUSH1 0x20 SWAP1 DIV DUP2 ADD SWAP3 DUP3 PUSH2 0xB1C JUMPI PUSH1 0x0 DUP6 SSTORE PUSH2 0xB63 JUMP JUMPDEST DUP3 PUSH1 0x1F LT PUSH2 0xB35 JUMPI DUP1 MLOAD PUSH1 0xFF NOT AND DUP4 DUP1 ADD OR DUP6 SSTORE PUSH2 0xB63 JUMP JUMPDEST DUP3 DUP1 ADD PUSH1 0x1 ADD DUP6 SSTORE DUP3 ISZERO PUSH2 0xB63 JUMPI SWAP2 DUP3 ADD JUMPDEST DUP3 DUP2 GT ISZERO PUSH2 0xB62 JUMPI DUP3 MLOAD DUP3 SSTORE SWAP2 PUSH1 0x20 ADD SWAP2 SWAP1 PUSH1 0x1 ADD SWAP1 PUSH2 0xB47 JUMP JUMPDEST JUMPDEST POP SWAP1 POP PUSH2 0xB70 SWAP2 SWAP1 PUSH2 0xB74 JUMP JUMPDEST POP SWAP1 JUMP JUMPDEST JUMPDEST DUP1 DUP3 GT ISZERO PUSH2 0xB8D JUMPI PUSH1 0x0 DUP2 PUSH1 0x0 SWAP1 SSTORE POP PUSH1 0x1 ADD PUSH2 0xB75 JUMP JUMPDEST POP SWAP1 JUMP JUMPDEST PUSH1 0x0 PUSH2 0xBA4 PUSH2 0xB9F DUP5 PUSH2 0xEBD JUMP JUMPDEST PUSH2 0xE98 JUMP JUMPDEST SWAP1 POP DUP3 DUP2 MSTORE PUSH1 0x20 DUP2 ADD DUP5 DUP5 DUP5 ADD GT ISZERO PUSH2 0xBC0 JUMPI PUSH2 0xBBF PUSH2 0x11DB JUMP JUMPDEST JUMPDEST PUSH2 0xBCB DUP5 DUP3 DUP6 PUSH2 0x1002 JUMP JUMPDEST POP SWAP4 SWAP3 POP POP POP JUMP JUMPDEST PUSH1 0x0 DUP3 PUSH1 0x1F DUP4 ADD SLT PUSH2 0xBE8 JUMPI PUSH2 0xBE7 PUSH2 0x11D6 JUMP JUMPDEST JUMPDEST DUP2 CALLDATALOAD PUSH2 0xBF8 DUP5 DUP3 PUSH1 0x20 DUP7 ADD PUSH2 0xB91 JUMP JUMPDEST SWAP2 POP POP SWAP3 SWAP2 POP POP JUMP JUMPDEST PUSH1 0x0 DUP2 CALLDATALOAD SWAP1 POP PUSH2 0xC10 DUP2 PUSH2 0x11FB JUMP JUMPDEST SWAP3 SWAP2 POP POP JUMP JUMPDEST PUSH1 0x0 PUSH1 0x20 DUP3 DUP5 SUB SLT ISZERO PUSH2 0xC2C JUMPI PUSH2 0xC2B PUSH2 0x11E5 JUMP JUMPDEST JUMPDEST PUSH1 0x0 DUP3 ADD CALLDATALOAD PUSH8 0xFFFFFFFFFFFFFFFF DUP2 GT ISZERO PUSH2 0xC4A JUMPI PUSH2 0xC49 PUSH2 0x11E0 JUMP JUMPDEST JUMPDEST PUSH2 0xC56 DUP5 DUP3 DUP6 ADD PUSH2 0xBD3 JUMP JUMPDEST SWAP2 POP POP SWAP3 SWAP2 POP POP JUMP JUMPDEST PUSH1 0x0 PUSH1 0x20 DUP3 DUP5 SUB SLT ISZERO PUSH2 0xC75 JUMPI PUSH2 0xC74 PUSH2 0x11E5 JUMP JUMPDEST JUMPDEST PUSH1 0x0 PUSH2 0xC83 DUP5 DUP3 DUP6 ADD PUSH2 0xC01 JUMP JUMPDEST SWAP2 POP POP SWAP3 SWAP2 POP POP JUMP JUMPDEST PUSH1 0x0 PUSH2 0xC98 DUP4 DUP4 PUSH2 0xD8E JUMP JUMPDEST SWAP1 POP SWAP3 SWAP2 POP POP JUMP JUMPDEST PUSH1 0x0 PUSH2 0xCAB DUP3 PUSH2 0xEFE JUMP JUMPDEST PUSH2 0xCB5 DUP2 DUP6 PUSH2 0xF21 JUMP JUMPDEST SWAP4 POP DUP4 PUSH1 0x20 DUP3 MUL DUP6 ADD PUSH2 0xCC7 DUP6 PUSH2 0xEEE JUMP JUMPDEST DUP1 PUSH1 0x0 JUMPDEST DUP6 DUP2 LT ISZERO PUSH2 0xD03 JUMPI DUP5 DUP5 SUB DUP10 MSTORE DUP2 MLOAD PUSH2 0xCE4 DUP6 DUP3 PUSH2 0xC8C JUMP JUMPDEST SWAP5 POP PUSH2 0xCEF DUP4 PUSH2 0xF14 JUMP JUMPDEST SWAP3 POP PUSH1 0x20 DUP11 ADD SWAP10 POP POP PUSH1 0x1 DUP2 ADD SWAP1 POP PUSH2 0xCCB JUMP JUMPDEST POP DUP3 SWAP8 POP DUP8 SWAP6 POP POP POP POP POP POP SWAP3 SWAP2 POP POP JUMP JUMPDEST PUSH2 0xD1E DUP2 PUSH2 0xFD8 JUMP JUMPDEST DUP3 MSTORE POP POP JUMP JUMPDEST PUSH1 0x0 PUSH2 0xD2F DUP3 PUSH2 0xF09 JUMP JUMPDEST PUSH2 0xD39 DUP2 DUP6 PUSH2 0xF32 JUMP JUMPDEST SWAP4 POP PUSH2 0xD49 DUP2 DUP6 PUSH1 0x20 DUP7 ADD PUSH2 0x1011 JUMP JUMPDEST PUSH2 0xD52 DUP2 PUSH2 0x11EA JUMP JUMPDEST DUP5 ADD SWAP2 POP POP SWAP3 SWAP2 POP POP JUMP JUMPDEST PUSH1 0x0 PUSH2 0xD68 DUP3 PUSH2 0xF09 JUMP JUMPDEST PUSH2 0xD72 DUP2 DUP6 PUSH2 0xF43 JUMP JUMPDEST SWAP4 POP PUSH2 0xD82 DUP2 DUP6 PUSH1 0x20 DUP7 ADD PUSH2 0x1011 JUMP JUMPDEST DUP1 DUP5 ADD SWAP2 POP POP SWAP3 SWAP2 POP POP JUMP JUMPDEST PUSH1 0x0 PUSH1 0x60 DUP4 ADD PUSH1 0x0 DUP4 ADD MLOAD DUP5 DUP3 SUB PUSH1 0x0 DUP7 ADD MSTORE PUSH2 0xDAB DUP3 DUP3 PUSH2 0xD24 JUMP JUMPDEST SWAP2 POP POP PUSH1 0x20 DUP4 ADD MLOAD PUSH2 0xDC0 PUSH1 0x20 DUP7 ADD DUP3 PUSH2 0xE2E JUMP JUMPDEST POP PUSH1 0x40 DUP4 ADD MLOAD PUSH2 0xDD3 PUSH1 0x40 DUP7 ADD DUP3 PUSH2 0xD15 JUMP JUMPDEST POP DUP1 SWAP2 POP POP SWAP3 SWAP2 POP POP JUMP JUMPDEST PUSH1 0x0 PUSH1 0x60 DUP4 ADD PUSH1 0x0 DUP4 ADD MLOAD DUP5 DUP3 SUB PUSH1 0x0 DUP7 ADD MSTORE PUSH2 0xDFB DUP3 DUP3 PUSH2 0xD24 JUMP JUMPDEST SWAP2 POP POP PUSH1 0x20 DUP4 ADD MLOAD PUSH2 0xE10 PUSH1 0x20 DUP7 ADD DUP3 PUSH2 0xE2E JUMP JUMPDEST POP PUSH1 0x40 DUP4 ADD MLOAD PUSH2 0xE23 PUSH1 0x40 DUP7 ADD DUP3 PUSH2 0xD15 JUMP JUMPDEST POP DUP1 SWAP2 POP POP SWAP3 SWAP2 POP POP JUMP JUMPDEST PUSH2 0xE37 DUP2 PUSH2 0xFEE JUMP JUMPDEST DUP3 MSTORE POP POP JUMP JUMPDEST PUSH1 0x0 PUSH2 0xE49 DUP3 DUP5 PUSH2 0xD5D JUMP JUMPDEST SWAP2 POP DUP2 SWAP1 POP SWAP3 SWAP2 POP POP JUMP JUMPDEST PUSH1 0x0 PUSH1 0x20 DUP3 ADD SWAP1 POP DUP2 DUP2 SUB PUSH1 0x0 DUP4 ADD MSTORE PUSH2 0xE6E DUP2 DUP5 PUSH2 0xCA0 JUMP JUMPDEST SWAP1 POP SWAP3 SWAP2 POP POP JUMP JUMPDEST PUSH1 0x0 PUSH1 0x20 DUP3 ADD SWAP1 POP DUP2 DUP2 SUB PUSH1 0x0 DUP4 ADD MSTORE PUSH2 0xE90 DUP2 DUP5 PUSH2 0xDDE JUMP JUMPDEST SWAP1 POP SWAP3 SWAP2 POP POP JUMP JUMPDEST PUSH1 0x0 PUSH2 0xEA2 PUSH2 0xEB3 JUMP JUMPDEST SWAP1 POP PUSH2 0xEAE DUP3 DUP3 PUSH2 0x10A0 JUMP JUMPDEST SWAP2 SWAP1 POP JUMP JUMPDEST PUSH1 0x0 PUSH1 0x40 MLOAD SWAP1 POP SWAP1 JUMP JUMPDEST PUSH1 0x0 PUSH8 0xFFFFFFFFFFFFFFFF DUP3 GT ISZERO PUSH2 0xED8 JUMPI PUSH2 0xED7 PUSH2 0x11A7 JUMP JUMPDEST JUMPDEST PUSH2 0xEE1 DUP3 PUSH2 0x11EA JUMP JUMPDEST SWAP1 POP PUSH1 0x20 DUP2 ADD SWAP1 POP SWAP2 SWAP1 POP JUMP JUMPDEST PUSH1 0x0 DUP2 SWAP1 POP PUSH1 0x20 DUP3 ADD SWAP1 POP SWAP2 SWAP1 POP JUMP JUMPDEST PUSH1 0x0 DUP2 MLOAD SWAP1 POP SWAP2 SWAP1 POP JUMP JUMPDEST PUSH1 0x0 DUP2 MLOAD SWAP1 POP SWAP2 SWAP1 POP JUMP JUMPDEST PUSH1 0x0 PUSH1 0x20 DUP3 ADD SWAP1 POP SWAP2 SWAP1 POP JUMP JUMPDEST PUSH1 0x0 DUP3 DUP3 MSTORE PUSH1 0x20 DUP3 ADD SWAP1 POP SWAP3 SWAP2 POP POP JUMP JUMPDEST PUSH1 0x0 DUP3 DUP3 MSTORE PUSH1 0x20 DUP3 ADD SWAP1 POP SWAP3 SWAP2 POP POP JUMP JUMPDEST PUSH1 0x0 DUP2 SWAP1 POP SWAP3 SWAP2 POP POP JUMP JUMPDEST PUSH1 0x0 PUSH2 0xF59 DUP3 PUSH2 0xFE4 JUMP JUMPDEST SWAP2 POP PUSH2 0xF64 DUP4 PUSH2 0xFE4 JUMP JUMPDEST SWAP3 POP DUP3 PUSH32 0xFFFFFFFFFFFFFFFFFFFFFFFFFFFFFFFFFFFFFFFFFFFFFFFFFFFFFFFFFFFFFFFF SUB DUP3 GT ISZERO PUSH2 0xF99 JUMPI PUSH2 0xF98 PUSH2 0x111A JUMP JUMPDEST JUMPDEST DUP3 DUP3 ADD SWAP1 POP SWAP3 SWAP2 POP POP JUMP JUMPDEST PUSH1 0x0 PUSH2 0xFAF DUP3 PUSH2 0xFE4 JUMP JUMPDEST SWAP2 POP PUSH2 0xFBA DUP4 PUSH2 0xFE4 JUMP JUMPDEST SWAP3 POP DUP3 DUP3 LT ISZERO PUSH2 0xFCD JUMPI PUSH2 0xFCC PUSH2 0x111A JUMP JUMPDEST JUMPDEST DUP3 DUP3 SUB SWAP1 POP SWAP3 SWAP2 POP POP JUMP JUMPDEST PUSH1 0x0 DUP2 ISZERO ISZERO SWAP1 POP SWAP2 SWAP1 POP JUMP JUMPDEST PUSH1 0x0 DUP2 SWAP1 POP SWAP2 SWAP1 POP JUMP JUMPDEST PUSH1 0x0 PUSH8 0xFFFFFFFFFFFFFFFF DUP3 AND SWAP1 POP SWAP2 SWAP1 POP JUMP JUMPDEST DUP3 DUP2 DUP4 CALLDATACOPY PUSH1 0x0 DUP4 DUP4 ADD MSTORE POP POP POP JUMP JUMPDEST PUSH1 0x0 JUMPDEST DUP4 DUP2 LT ISZERO PUSH2 0x102F JUMPI DUP1 DUP3 ADD MLOAD DUP2 DUP5 ADD MSTORE PUSH1 0x20 DUP2 ADD SWAP1 POP PUSH2 0x1014 JUMP JUMPDEST DUP4 DUP2 GT ISZERO PUSH2 0x103E JUMPI PUSH1 0x0 DUP5 DUP5 ADD MSTORE JUMPDEST POP POP POP POP JUMP JUMPDEST PUSH1 0x0 PUSH2 0x104F DUP3 PUSH2 0xFE4 JUMP JUMPDEST SWAP2 POP PUSH1 0x0 DUP3 EQ ISZERO PUSH2 0x1063 JUMPI PUSH2 0x1062 PUSH2 0x111A JUMP JUMPDEST JUMPDEST PUSH1 0x1 DUP3 SUB SWAP1 POP SWAP2 SWAP1 POP JUMP JUMPDEST PUSH1 0x0 PUSH1 0x2 DUP3 DIV SWAP1 POP PUSH1 0x1 DUP3 AND DUP1 PUSH2 0x1086 JUMPI PUSH1 0x7F DUP3 AND SWAP2 POP JUMPDEST PUSH1 0x20 DUP3 LT DUP2 EQ ISZERO PUSH2 0x109A JUMPI PUSH2 0x1099 PUSH2 0x1149 JUMP JUMPDEST JUMPDEST POP SWAP2 SWAP1 POP JUMP JUMPDEST PUSH2 0x10A9 DUP3 PUSH2 0x11EA JUMP JUMPDEST DUP2 ADD DUP2 DUP2 LT PUSH8 0xFFFFFFFFFFFFFFFF DUP3 GT OR ISZERO PUSH2 0x10C8 JUMPI PUSH2 0x10C7 PUSH2 0x11A7 JUMP JUMPDEST JUMPDEST DUP1 PUSH1 0x40 MSTORE POP POP POP JUMP JUMPDEST PUSH1 0x0 PUSH2 0x10DC DUP3 PUSH2 0xFE4 JUMP JUMPDEST SWAP2 POP PUSH32 0xFFFFFFFFFFFFFFFFFFFFFFFFFFFFFFFFFFFFFFFFFFFFFFFFFFFFFFFFFFFFFFFF DUP3 EQ ISZERO PUSH2 0x110F JUMPI PUSH2 0x110E PUSH2 0x111A JUMP JUMPDEST JUMPDEST PUSH1 0x1 DUP3 ADD SWAP1 POP SWAP2 SWAP1 POP JUMP JUMPDEST PUSH32 0x4E487B7100000000000000000000000000000000000000000000000000000000 PUSH1 0x0 MSTORE PUSH1 0x11 PUSH1 0x4 MSTORE PUSH1 0x24 PUSH1 0x0 REVERT JUMPDEST PUSH32 0x4E487B7100000000000000000000000000000000000000000000000000000000 PUSH1 0x0 MSTORE PUSH1 0x22 PUSH1 0x4 MSTORE PUSH1 0x24 PUSH1 0x0 REVERT JUMPDEST PUSH32 0x4E487B7100000000000000000000000000000000000000000000000000000000 PUSH1 0x0 MSTORE PUSH1 0x32 PUSH1 0x4 MSTORE PUSH1 0x24 PUSH1 0x0 REVERT JUMPDEST PUSH32 0x4E487B7100000000000000000000000000000000000000000000000000000000 PUSH1 0x0 MSTORE PUSH1 0x41 PUSH1 0x4 MSTORE PUSH1 0x24 PUSH1 0x0 REVERT JUMPDEST PUSH1 0x0 DUP1 REVERT JUMPDEST PUSH1 0x0 DUP1 REVERT JUMPDEST PUSH1 0x0 DUP1 REVERT JUMPDEST PUSH1 0x0 DUP1 REVERT JUMPDEST PUSH1 0x0 PUSH1 0x1F NOT PUSH1 0x1F DUP4 ADD AND SWAP1 POP SWAP2 SWAP1 POP JUMP JUMPDEST PUSH2 0x1204 DUP2 PUSH2 0xFE4 JUMP JUMPDEST DUP2 EQ PUSH2 0x120F JUMPI PUSH1 0x0 DUP1 REVERT JUMPDEST POP JUMP INVALID LOG2 PUSH5 0x6970667358 0x22 SLT KECCAK256 SELFDESTRUCT PUSH20 0x8613EC17612670BC7CD70350D24F4E0CD9D2AC3C INVALID 0xDB 0xDF 0xBD PUSH6 0x9F8D5ED65664 PUSH20 0x6F6C634300080700330000000000000000000000 "
				},
				"gasEstimates": {
					"creation": {
						"codeDepositCost": "936000",
						"executionCost": "975",
						"totalCost": "936975"
					},
					"external": {
						"addMission(string)": "infinite",
						"allMissions()": "infinite",
						"missionByID(uint256)": "infinite",
						"missionByName(string)": "infinite",
						"removeMission(string)": "infinite"
					}
				},
				"methodIdentifiers": {
					"addMission(string)": "72254ef8",
					"allMissions()": "2da76955",
					"missionByID(uint256)": "f17fcb2f",
					"missionByName(string)": "7509d95d",
					"removeMission(string)": "d4b127ff"
				}
			},
			"storageLayout": {
				"storage": [
					{
						"astId": 4,
						"contract": "backend/web3/Purpose.sol:Purpose",
						"label": "db",
						"offset": 0,
						"slot": "0",
						"type": "t_struct(MissionDatabase)117_storage"
					}
				],
				"types": {
					"t_array(t_struct(MissionKey)122_storage)dyn_storage": {
						"base": "t_struct(MissionKey)122_storage",
						"encoding": "dynamic_array",
						"label": "struct MissionKey[]",
						"numberOfBytes": "32"
					},
					"t_bool": {
						"encoding": "inplace",
						"label": "bool",
						"numberOfBytes": "1"
					},
					"t_mapping(t_string_memory_ptr,t_struct(MissionValue)128_storage)": {
						"encoding": "mapping",
						"key": "t_string_memory_ptr",
						"label": "mapping(string => struct MissionValue)",
						"numberOfBytes": "32",
						"value": "t_struct(MissionValue)128_storage"
					},
					"t_string_memory_ptr": {
						"encoding": "bytes",
						"label": "string",
						"numberOfBytes": "32"
					},
					"t_string_storage": {
						"encoding": "bytes",
						"label": "string",
						"numberOfBytes": "32"
					},
					"t_struct(Mission)135_storage": {
						"encoding": "inplace",
						"label": "struct Mission",
						"members": [
							{
								"astId": 130,
								"contract": "backend/web3/Purpose.sol:Purpose",
								"label": "title",
								"offset": 0,
								"slot": "0",
								"type": "t_string_storage"
							},
							{
								"astId": 132,
								"contract": "backend/web3/Purpose.sol:Purpose",
								"label": "payout",
								"offset": 0,
								"slot": "1",
								"type": "t_uint64"
							},
							{
								"astId": 134,
								"contract": "backend/web3/Purpose.sol:Purpose",
								"label": "completed",
								"offset": 8,
								"slot": "1",
								"type": "t_bool"
							}
						],
						"numberOfBytes": "64"
					},
					"t_struct(MissionDatabase)117_storage": {
						"encoding": "inplace",
						"label": "struct MissionDatabase",
						"members": [
							{
								"astId": 107,
								"contract": "backend/web3/Purpose.sol:Purpose",
								"label": "keys",
								"offset": 0,
								"slot": "0",
								"type": "t_array(t_struct(MissionKey)122_storage)dyn_storage"
							},
							{
								"astId": 112,
								"contract": "backend/web3/Purpose.sol:Purpose",
								"label": "map",
								"offset": 0,
								"slot": "1",
								"type": "t_mapping(t_string_memory_ptr,t_struct(MissionValue)128_storage)"
							},
							{
								"astId": 114,
								"contract": "backend/web3/Purpose.sol:Purpose",
								"label": "size",
								"offset": 0,
								"slot": "2",
								"type": "t_uint256"
							},
							{
								"astId": 116,
								"contract": "backend/web3/Purpose.sol:Purpose",
								"label": "capacity",
								"offset": 0,
								"slot": "3",
								"type": "t_uint256"
							}
						],
						"numberOfBytes": "128"
					},
					"t_struct(MissionKey)122_storage": {
						"encoding": "inplace",
						"label": "struct MissionKey",
						"members": [
							{
								"astId": 119,
								"contract": "backend/web3/Purpose.sol:Purpose",
								"label": "deleted",
								"offset": 0,
								"slot": "0",
								"type": "t_bool"
							},
							{
								"astId": 121,
								"contract": "backend/web3/Purpose.sol:Purpose",
								"label": "value",
								"offset": 0,
								"slot": "1",
								"type": "t_string_storage"
							}
						],
						"numberOfBytes": "64"
					},
					"t_struct(MissionValue)128_storage": {
						"encoding": "inplace",
						"label": "struct MissionValue",
						"members": [
							{
								"astId": 124,
								"contract": "backend/web3/Purpose.sol:Purpose",
								"label": "index",
								"offset": 0,
								"slot": "0",
								"type": "t_uint256"
							},
							{
								"astId": 127,
								"contract": "backend/web3/Purpose.sol:Purpose",
								"label": "value",
								"offset": 0,
								"slot": "1",
								"type": "t_struct(Mission)135_storage"
							}
						],
						"numberOfBytes": "96"
					},
					"t_uint256": {
						"encoding": "inplace",
						"label": "uint256",
						"numberOfBytes": "32"
					},
					"t_uint64": {
						"encoding": "inplace",
						"label": "uint64",
						"numberOfBytes": "8"
					}
				}
			},
			"userdoc": {
				"kind": "user",
				"methods": {},
				"version": 1
			}
		}
	}
}